:020000040000FA
:100000000C9403010C942D010C942D010C942D01E2
:100010000C942D010C942D010C942D010C942D01A8
:100020000C942D010C942D010C942D010C942D0198
:100030000C942D010C942D010C942D010C942D0188
:100040000C942D010C942D010C942D010C942D0178
:100050000C942D010C942D010C942D010C94520A3A
:100060000C942D010C94C60A0C949C0A0C942D013E
:100070000C942D010C942D010C942D010C942D0148
:100080000C942D010C942D010C942D010C942D0138
:100090000C942D010C942D010C942D010C94FC0A50
:1000A0000C942D010C942D010C942D010C942D0118
:1000B0000C942D010C942D010C942D010C942D0108
:1000C0000C942D010C942D010C942D010C942D01F8
:1000D0000C942D010C942D010C942D010C942D01E8
:1000E0000C942D0100002100240027002A002D007F
:1000F0003000330001010000040107010A01000083
:100100002200250028002B002E00310034000201BF
:100110000000050108010B0100002000230026005B
:1001200029002C002F00320000010000030106010D
:10013000090105050505070508080808020202026D
:100140000A0A080804040404010101010101010173
:100150000303030303030303040707070C0C0C0C3E
:100160000C0C0C0C02020202060606060606060627
:100170000B0B0B0B0B0B0B0B0102102020080810B4
:100180002040102040800201020108040201010207
:1001900004081020408080402010080402018004E0
:1001A000020180402010080402010804020101023B
:1001B0000408102040800102040810204080000044
:1001C0000A0B02090C0D0E080703040100000000D1
:1001D000000000000000000000000000000000001F
:1001E00000000000000000000000121110000000DC
:1001F00000000000000000000000000000000000FF
:1002000000000000650C11241FBECFEFD1E2DEBF5D
:10021000CDBF1BE0A0E0B2E0E8E3F0E400E00BBFFC
:1002200002C007900D92AA36B107D9F72DE0AAE6D1
:10023000BBE001C01D92A035B207E1F711E0C3E0B9
:10024000D1E004C02197FE010E94071FC230D107F0
:10025000C9F70E949E0C0C941A200C940000815047
:10026000823108F058C0E82FF0E0E75CFE4F0C94B4
:10027000071F59015D014B01510155018B016001BF
:1002800066016A017001740178017E0182018B01AF
:1002900086018C019001809180008F77809380008F
:1002A0000895809180008F7DF9CF80918000877FB5
:1002B000F5CF84B58F7784BD089584B58F7DFBCF4E
:1002C0008091B0008F778093B00008958091B00046
:1002D0008F7DF9CF809190008F7780939000089563
:1002E000809190008F7DF9CF80919000877FF5CF2E
:1002F0008091A0008F778093A00008958091A00046
:100300008F7DF9CF8091A000877FF5CF809120016C
:100310008F77809320010895809120018F7DF9CF00
:1003200080912001877FF5CFCF93DF93282F30E096
:10033000F901E254FE4F8491F901E858FE4FD4913F
:10034000F901EE5CFE4FC491CC23A1F081110E9413
:100350002F01EC2FF0E0EE0FFF1FE85EFE4FA5919E
:10036000B491EC91ED2381E090E009F480E0DF911D
:10037000CF91089580E090E0FACF1F93CF93DF9361
:10038000282F30E0F901E254FE4F8491F901E8583A
:10039000FE4FD491F901EE5CFE4FC491CC23A9F03D
:1003A000162F81110E942F01EC2FF0E0EE0FFF1F9E
:1003B000E250FF4FA591B4918FB7F894EC911111D1
:1003C00008C0D095DE23DC938FBFDF91CF911F91C2
:1003D0000895DE2BF8CFCF93DF9390E0FC01E8582F
:1003E000FE4F24918E5C9E4FFC0184918823C9F0BE
:1003F00090E0880F991FFC01EC51FF4FA591B4913B
:10040000FC01E250FF4FC591D49161110DC09FB71F
:10041000F8948C91209582238C93888128232883BB
:100420009FBFDF91CF910895623051F49FB7F89448
:100430003C91822F809583238C93E8812E2BEFCFE4
:100440008FB7F894EC912E2B2C938FBFEACF863385
:1004500008F0865320917B00982F9870277F922B6D
:1004600090937B008770806480937C0080917A00F9
:10047000806480937A0080917A0086FDFCCF809121
:1004800078009091790008953FB7F89480919F0C7F
:100490009091A00CA091A10CB091A20C26B5A89BA4
:1004A00005C02F3F19F00196A11DB11D3FBFBA2F06
:1004B000A92F982F8827BC01CD01620F711D811DC6
:1004C000911D42E0660F771F881F991F4A95D1F74B
:1004D00008958F929F92AF92BF92CF92DF92EF9248
:1004E000FF920E9444024B015C0184E6C82ED12C8D
:1004F000E12CF12C0E944402681979098A099B09B0
:10050000683E734081059105A8F321E0C21AD10825
:10051000E108F10888EE880E83E0981EA11CB11C4A
:10052000C114D104E104F10429F7FF90EF90DF90AA
:10053000CF90BF90AF909F908F9008952FB7F89471
:1005400060919B0C70919C0C80919D0C90919E0CE5
:100550002FBF089508950895AF92BF92CF92DF9272
:10056000EF92FF920F931F93CF93DF936C017B0168
:100570008B01040F151FEB015E01AE18BF08C017F9
:10058000D10759F06991D601ED91FC910190F0816C
:10059000E02DC6010995892B79F7C501DF91CF912F
:1005A0001F910F91FF90EF90DF90CF90BF90AF9091
:1005B0000895FC01538D448D252F30E0842F90E069
:1005C000821B930B541710F0CF960895019708954E
:1005D000FC01918D828D981761F0A28DAE0FBF2F17
:1005E000B11D5D968C91928D9F5F9F73928F90E06D
:1005F00008958FEF9FEF0895FC01918D828D9817DC
:1006000031F0828DE80FF11D858D90E008958FEF18
:100610009FEF0895FC01918D228D892F90E0805CE1
:100620009F4F821B91098F739927089583EA9CE05D
:100630000E940A0321E0892B09F420E0822F08950B
:10064000FC01A48DA80FB92FB11DA35ABF4F2C9147
:10065000848D90E001968F739927848FA689B7893E
:100660002C93A089B1898C91837080648C93938D35
:10067000848D981306C00288F389E02D80818F7DD8
:1006800080830895EF92FF920F931F93CF93DF9390
:10069000EC0181E0888F9B8D8C8D98131AC0E889BE
:1006A000F989808185FF15C09FB7F894EE89FF898D
:1006B0006083E889F98980818370806480839FBF2B
:1006C00081E090E0DF91CF911F910F91FF90EF902B
:1006D0000895F62E0B8D10E00F5F1F4F0F7311273B
:1006E000E02E8C8D8E110CC00FB607FCFACFE88976
:1006F000F989808185FFF5CFCE010E942003F1CFDB
:10070000EB8DEC0FFD2FF11DE35AFF4FF0829FB7E9
:10071000F8940B8FEA89FB8980818062CFCF682FA4
:1007200083EA9CE00C944203CF93DF93EC01888D25
:100730008823B9F0AA89BB89E889F9898C9185FD5C
:1007400003C0808186FD0DC00FB607FCF7CF8C91EA
:1007500085FFF2CF808185FFEDCFCE010E9420037F
:10076000E9CFDF91CF91089580E090E0892B29F0C7
:100770000E94160381110E94000080E090E0892B06
:1007800049F080E090E0892B29F00E94000081115F
:100790000E94000080E090E0892B49F080E090E02A
:1007A000892B29F00E94000081110E94000080E046
:1007B00090E0892B49F080E090E0892B29F00E949D
:1007C000000081110C94000008952091BF0B260FAA
:1007D0003327331F21323105ECF420910E0CFC013C
:1007E00090E080E0243069F082E00895A091BF0B92
:1007F0002191AC014156544FA40FB52FB11D2C933C
:100800000196861798F38091BF0B680F6093BF0B1A
:1008100080E0089581E0089510920E0C81E08093AD
:100820000D0C1092E80B61E084E10E94BD0161E0D3
:1008300085E10E94BD01E9EBF0E080818E7F80833D
:1008400080818D7F808388E48093B80085E48093E5
:10085000BC000895CF93DF9391E090939E0B882383
:10086000B9F0C091B800D091BA008091BC008A7BE9
:100870008093BC0060E084E10E94BD0160E085E1FE
:100880000E94BD010E940C04D093BA00C093B8002E
:10089000DF91CF9108950895E091E70B8091E60BE9
:1008A000E81730F4F0E0E258F44F808190E00895CA
:1008B0008FEF9FEF08959091E70B8091E60B2FEF5C
:1008C0003FEF981748F4E92FF0E0E258F44F208109
:1008D00030E09F5F9093E70BC90108958091E60B8C
:1008E0009091E70B891B990B0895CF92DF92EF92BD
:1008F000FF920F931F93CF93DF937C01CB018A016B
:100900002091140C222389F0EB016B01C40ED51E3B
:10091000CC15DD0569F06991D701ED91FC9101904D
:10092000F081E02DC7010995F3CF642F0E94E50304
:10093000C801DF91CF911F910F91FF90EF90DF9051
:10094000CF900895CF93DF931F92CDB7DEB7698321
:100950002091140C2223F9F02091370C203258F00A
:1009600021E030E0FC013383228390E080E00F90AF
:10097000DF91CF9108958091150CE82FF0E0EA5EA9
:10098000F34F998190838F5F8093150C8093370C80
:1009900081E090E0ECCF61E0CE0101960E94E5039A
:1009A000F7CF90E080E008951092380C1092390C47
:1009B00010923A0C10923B0CEFE3FCE011928CE0A9
:1009C000EF38F807D9F708950F931F93CF93DF936C
:1009D000082FC8E0D0E010E8802F812359F081E390
:1009E0000E948F0316952197B9F7DF91CF911F9140
:1009F0000F91089580E3F4CF90E0FC01E858FE4F9A
:100A00002491FC01EE5CFE4FE491F0E0EE0FFF1F3D
:100A1000E85EFE4FA591B491EC91E22381E090E075
:100A200011F490E080E008958F709927FC01EE5951
:100A3000FD4F80810C948F03FC0101900020E9F7A9
:100A40003197AF01481B590BBC0183EA9CE00C9421
:100A5000AC028F929F92AF92BF920F931F93CF934E
:100A6000DF93CDB7DEB7A1970FB6F894DEBF0FBE08
:100A7000CDBF19A2423008F44AE08E010F5D1F4F2E
:100A8000842E912CB12CA12CA50194010E94C61E8C
:100A9000E62FB901CA01EA30F4F4E05DD801EE9323
:100AA0008D01232B242B252B79F790E080E01097E4
:100AB00019F0CD010E941C05A1960FB6F894DEBF77
:100AC0000FBECDBFDF91CF911F910F91BF90AF901F
:100AD0009F908F900895E95CE1CF0C942905AB01BC
:100AE000682F70E090E080E00C946D050C941C057C
:100AF00083E792E00C941C05CF93DF93FC014481C3
:100B000055816081718183EA9CE00E94AC02EC0116
:100B10000E9478058C0F9D1FDF91CF9108950E9450
:100B2000780586E792E00E9476050E949E024AE0E0
:100B300050E00E946D058CE792E00E9476050C94CF
:100B400078050E948F050E9478058FE792E00E9449
:100B5000760583EA9CE00E94E8020196D1F30C94AA
:100B60008F05CF93DF930E941C05EC010E9478054E
:100B70008C0F9D1FDF91CF910895CF92DF92EF925E
:100B8000FF92CF93DF9397FF19C06B017C018DE239
:100B90000E948F03EC0166277727CB016C197D0932
:100BA0008E099F094AE00E9429058C0F9D1FDF9145
:100BB000CF91FF90EF90DF90CF9008954AE0DF91C2
:100BC000CF91FF90EF90DF90CF900C942905BC015E
:100BD000990F880B990B0C94BD05CF93DF930E945E
:100BE000E705EC010E9478058C0F9D1FDF91CF91E6
:100BF00008954F925F926F927F928F929F92AF92E1
:100C0000BF92CF92DF92EF92FF920F931F93CF93F9
:100C10006B017C01742EAC019B010E94AD1E8823E8
:100C200099F084E992E0CF911F910F91FF90EF909E
:100C3000DF90CF90BF90AF909F908F907F906F90FC
:100C40005F904F900C941C0546015701E894B7F84B
:100C50002FEF3FEF4FE75FE7C501B4010E94AD1EE4
:100C600081110DC02FEF3FEF4FE75FE7C501B401E2
:100C70000E946F1C18161CF488E992E0D4CF2FEF65
:100C80003FEF4FE75FE4C701B6010E94A81E1816A8
:100C90001CF48CE992E0C7CF2FEF3FEF4FE75FECFA
:100CA000C701B6010E946F1C87FDF3CF20E030E042
:100CB000A901C701B6010E946F1C10E000E087FF88
:100CC00008C08DE20E948F038C01F7FAF094F7F8C8
:100CD000F094C0E060E070E080E09FE37C1641F0BB
:100CE00020E030E040E251E40E94001ECF5FF6CFEA
:100CF000A70196010E94941D2B013C010E94791EC0
:100D00004B015C014AE00E9429057C01E00EF11EC6
:100D1000CC23B1F1C501B4010E94741C9B01AC014C
:100D2000C301B2010E94931D4B015C018EE20E943F
:100D30008F03E80EF91EC15018F120E030E040E2C8
:100D400051E4C501B4010E94D51C2B013C010E9455
:100D5000791E4B01B12CA12C4AE0C501B4010E94BF
:100D60002905E80EF91EC501B4010E94741C9B01FF
:100D7000AC01C301B2010E94931D4B015C01DBCFAA
:100D8000C701CF911F910F91FF90EF90DF90CF900F
:100D9000BF90AF909F908F907F906F905F904F909B
:100DA00008951F93CF93DF93182FD62FC8E0642F99
:100DB000812F0E94BD0161E08D2F0E94BD0160E086
:100DC0008D2F0E94BD01C15040E089F7DF91CF9186
:100DD0001F9108950F931F93CF93DF93EC018881A8
:100DE0009981009759F02A813B812617370730F007
:100DF00081E0DF91CF911F910F9108958B016F5F7B
:100E00007F4F0E94241F009759F0998388831B838A
:100E10000A832C813D81232B59F7FC011082E8CFF6
:100E200080E0E7CFEF92FF920F931F93CF93DF9372
:100E30006115710541F480E0DF91CF911F910F9111
:100E4000FF90EF90089541155105B1F07B01EC0141
:100E50000C811D81040F151FB8010E94EA0688232A
:100E600051F3288139818C819D81B701820F931FB5
:100E70000E9413201D830C8381E0DECFCF93DF938C
:100E8000EC0188819981009711F00E94B11B1982B1
:100E900018821D821C821B821A82DF91CF910895D5
:100EA000EF92FF920F931F93CF93DF93EC017B019F
:100EB000198218821B821A821D821C82FB010190FA
:100EC0000020E9F731978F01061B170BB8010E942C
:100ED000EA06811109C0CE01DF91CF911F910F91D8
:100EE000FF90EF900C943E071D830C83B70188811F
:100EF0009981DF91CF911F910F91FF90EF900C940A
:100F00001320CF92DF92EF92FF920F931F93CF9314
:100F1000DF93CDB7DEB762970FB6F894DEBF0FBE92
:100F2000CDBF8C01CB01F801118210821382128295
:100F3000158214824AE09E012F5F3F4F6901B9017B
:100F40000E943A1CF60101900020E9F731977F01D9
:100F5000EC18FD08B701C8010E94EA06811112C011
:100F6000C8010E943E0762960FB6F894DEBF0FBE1E
:100F7000CDBFDF91CF911F910F91FF90EF90DF9048
:100F8000CF900895F801F582E482B60180819181C5
:100F90000E941320E8CFCF93DF93EC01FB01019077
:100FA0000020E9F73197AF01461B570B0E9412074B
:100FB000811103C0CE010E943E07CE01DF91CF9187
:100FC0000895CF93DF93EC01FB014481558160814B
:100FD00071810E941207811103C0CE010E943E0759
:100FE000CE01DF91CF910895FC018081918100971E
:100FF00011F00C94B11B08950F931F93CF93DF93BF
:10100000CDB7DEB768970FB6F894DEBF0FBECDBF81
:101010008C010E94780580EA92E00E94B1058DEB78
:1010200092E00E94B1058DED92E00E94B1058CEF37
:1010300092E00E94B10585E393E00E94B1058DE541
:1010400093E00E94B10585E893E00E94B1058DEA26
:1010500093E00E94B1058FED93E00E94B10584EF0B
:1010600093E00E94B1058AE094E00E94B10584E219
:1010700094E00E94B1058AE594E00E94B1058AE7F8
:1010800094E00E94B1058AE994E00E94B1056EE106
:1010900070E0CE0143960E94810760E270E0CE01CD
:1010A0000D960E94810766E170E0CE0107960E94CE
:1010B00081076AEB74E0CE0101960E945007BE01E1
:1010C000695F7F4FCE0101960E94E10763EE74E0F5
:1010D0000E94CB07BE01635F7F4F0E94E1076CEE69
:1010E00074E00E94CB07BE016D5E7F4F0E94E10756
:1010F0000E947C05CE0101960E94F407CE0107965E
:101100000E94F407CE010D960E94F407CE0143968B
:101110000E94F4076EE170E0CE0143960E948107C1
:1011200064E270E0CE010D960E94810766E170E0F6
:10113000CE0107960E94810763EF74E0CE0101960D
:101140000E945007BE01695F7F4FCE0101960E9449
:10115000E10763EE74E00E94CB07BE01635F7F4F3F
:101160000E94E1076CEE74E00E94CB07BE016D5E49
:101170007F4F0E94E1070E947C05CE0101960E94EC
:10118000F407CE0107960E94F407CE010D960E9447
:10119000F407CE0143960E94F40766E370E0CE01A7
:1011A00007960E9481076CE175E0CE0101960E94CE
:1011B0005007BE01695F7F4FCE0101960E94E10793
:1011C00069E575E00E94CB070E947C05CE0101967F
:1011D0000E94F407CE0107960E94F407011511053D
:1011E00011F00E94A10587E695E00E94B1058FE904
:1011F00095E00E94B10580ED95E00E94B1058EE179
:1012000096E00E94B10581E496E00E94B1058CE56C
:1012100096E00E94B1058DE796E00E94B10589E94C
:1012200096E00E94B10580ED96E00E94B10585E14F
:1012300097E00E94B10582E497E00E94B10583E740
:1012400097E00E94B10585EA97E00E94B1058EED16
:1012500097E00E94B1058FEF97E00E94B1050E94D0
:10126000780581E498E00E94B105012B11F00E94FD
:10127000A10568960FB6F894DEBF0FBECDBFDF9113
:10128000CF911F910F91089585ED8093BC008091BF
:10129000100C9091110CA091120CB091130C0796A8
:1012A000A11DB11D23E0B695A795979587952A9521
:1012B000D1F72091BC0024FD03C010920E0C0895BC
:1012C0004091100C5091110C6091120C7091130C04
:1012D000452B462B472B69F30097A105B10541F03B
:1012E0002AE22A95F1F700C00197A109B109E1CFDF
:1012F00080910F0C0C942A040F931F93CF93DF93CC
:1013000000D0CDB7DEB781E898E00E94B1058EE944
:1013100098E00E94760520914C0D30914D0DCE0144
:1013200001962115310509F0BAC080559D409A8378
:10133000898389819A810E94ED0584E090E00E9472
:10134000151B8C0190937B0B80937A0B0E94B11B31
:101350008DB79EB790937D0B80937C0B801B910B78
:101360009093790B8093780B8BEA98E00E94760536
:101370008091780B9091790B0E94ED052FEF31E26F
:10138000C901805092409093770B8093760B4AE688
:101390005BE0405052405093750B4093740B60E5F6
:1013A0007DE06A567B407093730B6093720B0091E3
:1013B0004C0D10914D0DD801A055BD40B093710B4F
:1013C000A093700BEDB7FEB72E1B3F0B30936F0B46
:1013D00020936E0BEDB7FEB7E01BF10BF0936D0B96
:1013E000E0936C0B821B930B8A1B9B0B861B970B4A
:1013F000841B950B90936B0B80936A0B87EB98E0A3
:101400000E94B1058EED98E00E9476058091760BE2
:101410009091770B0E94ED058AEE98E00E94760588
:101420008091740B9091750B0E94ED0586EF98E00A
:101430000E9476058091720B9091730B0E94ED05CE
:1014400082E099E00E9476058091700B9091710B7B
:101450000E94ED058EE099E00E94760580916E0B6A
:1014600090916F0B0E94ED058AE199E00E9476054C
:1014700080916C0B90916D0B0E94ED0586E299E0D6
:101480000E94760580916A0B90916B0B0E94ED058E
:101490000F900F90DF91CF911F910F910895821BB4
:1014A000930B45CF1F920F920FB60F9211242F93DB
:1014B0003F938F939F93AF93BF9380919B0C909199
:1014C0009C0CA0919D0CB0919E0C30919A0C23E045
:1014D000230F2D3758F50196A11DB11D20939A0CAD
:1014E00080939B0C90939C0CA0939D0CB0939E0CAE
:1014F00080919F0C9091A00CA091A10CB091A20C96
:101500000196A11DB11D80939F0C9093A00CA093F8
:10151000A10CB093A20CBF91AF919F918F913F917D
:101520002F910F900FBE0F901F90189526E8230F54
:101530000296A11DB11DD2CF1F920F920FB60F922E
:1015400011240BB60F922F933F934F935F936F939A
:101550007F938F939F93AF93BF93EF93FF9383EA10
:101560009CE00E942003FF91EF91BF91AF919F916A
:101570008F917F916F915F914F913F912F910F903C
:101580000BBE0F900FBE0F901F9018951F920F92D9
:101590000FB60F9211240BB60F922F938F939F9338
:1015A000EF93FF93E091B30CF091B40C8081E09144
:1015B000B90CF091BA0C82FD1DC090818091BC0CD9
:1015C0008F5F8F732091BD0C821741F0E091BC0CAE
:1015D000F0E0ED55F34F958F8093BC0CFF91EF91A8
:1015E0009F918F912F910F900BBE0F900FBE0F9078
:1015F0001F9018958081F2CF1F920F920FB60F9215
:1016000011240BB60F922F933F934F935F936F93D9
:101610007F938F939F93AF93BF93EF93FF938091AB
:10162000B900887F803609F44DC008F040C0883288
:1016300009F4A9C028F5803109F49DC0C8F48823B5
:1016400009F4FBC0883009F496C0FF91EF91BF9177
:10165000AF919F918F917F916F915F914F913F914A
:101660002F910F900BBE0F900FBE0F901F901895EB
:10167000883109F488C0803241F780930C0C14C083
:10168000803409F49DC040F48033B9F38833E9F61F
:1016900080930C0C85ECB0C0803509F485C088358A
:1016A00009F496C0883489F60E944409CECF88395F
:1016B00009F48CC038F5883729F050F4883611F0D9
:1016C000803719F683E080930E0C1092E10B57C01F
:1016D000883809F47BC0803919F0803809F0B5CF1B
:1016E0008091E10B803208F071C0E091E10B81E064
:1016F0008E0F8093E10B8091BB00F0E0EF53F44F2D
:1017000080833DC0803B39F0E0F4803A09F479C031
:10171000883A09F09ACF84E080930E0C1092C00BA7
:101720001092BF0BE091E40BF091E50B09958091CD
:10173000BF0B81110FC081E08093BF0B10929F0BF4
:1017400009C0803C09F4A6CF883C09F4A3CF883BAC
:1017500009F07BCFE091C00B81E08E0F8093C00B2E
:10176000F0E0E156F44F80818093BB009091C00B74
:101770008091BF0B29C08091E90B8093BB0085EC61
:101780008093BC0062CF90910B0C80910A0C98174B
:1017900058F5E0910B0C81E08E0F80930B0CF0E07C
:1017A000E651F44F8081E9CFE0910B0C81E08E0F80
:1017B00080930B0C8091BB00F0E0E651F44F8083E6
:1017C00090910B0C80910A0C9817C8F285E8D8CF3D
:1017D000E0910B0C81E08E0F80930B0C8091BB008D
:1017E000F0E0E651F44F808380910D0C81115CCFC5
:1017F00081E08093E80B84EA8093BC0010920E0C89
:1018000024CF85EC8093BC0010920E0C8091E10BEC
:10181000803230F4E091E10BF0E0EF53F44F1082AE
:101820006091E10B70E0E091E20BF091E30B81EC51
:101830009BE009951092E10B08CF10920C0C34CF6D
:10184000CF92DF92EF92FF920F931F93E82FF92F21
:1018500005C0015011092109310961F190819623D8
:101860009417B9F305C0015011092109310911F18B
:10187000908196239413F7CFC12CD12CE12CF12C1D
:101880000AC08FEFC81AD80AE80AF80A0C151D0515
:101890002E053F0579F080818623841791F36C2D06
:1018A0007D2D8E2D9F2D1F910F91FF90EF90DF903A
:1018B000CF90089560E070E080E090E01F910F917C
:1018C000FF90EF90DF90CF900895E3EAFCE0138261
:1018D000128288EE93E0A0E0B0E084839583A68333
:1018E000B78322E432E03183208325EC30E0358772
:1018F000248724EC30E03787268720EC30E0318BDA
:10190000208B21EC30E0338B228B22EC30E0358BC6
:10191000248B26EC30E0378B268B118E128E138EA3
:10192000148EE0E4FDE01382128284839583A68303
:10193000B78384E592E0918380830895CF93DF930A
:1019400000D000D0CDB7DEB7789484B5826084BD76
:1019500084B5816084BD85B5826085BD85B58160B3
:1019600085BD80916E00816080936E001092810031
:1019700080918100826080938100809181008160EC
:1019800080938100809180008160809380008091AD
:10199000B10084608093B1008091B0008160809339
:1019A000B0008091910082608093910080919100BD
:1019B000816080939100809190008160809390007D
:1019C0008091A10082608093A1008091A10081603C
:1019D0008093A1008091A00081608093A0008091FD
:1019E0002101826080932101809121018160809397
:1019F00021018091200181608093200180917A00F3
:101A0000846080937A0080917A00826080937A006B
:101A100080917A00816080937A0080917A0080685A
:101A200080937A001092C1001092E70B1092E60B9F
:101A30001092150C1092370C0E940C048AEA92E066
:101A40009093E50B8093E40B8BEA92E09093E30B89
:101A50008093E20B80917A00846080937A00809179
:101A60007A008D7F80937A0080917A008E7F8093B8
:101A70007A00E091B30CF091B40C82E08083E091A5
:101A8000AF0CF091B00C1082E091B10CF091B20C5F
:101A900080E180831092BB0CE091B70CF091B80C00
:101AA00086E08083E091B50CF091B60C8081806176
:101AB0008083E091B50CF091B60C808188608083C2
:101AC000E091B50CF091B60C808180688083E09144
:101AD000B50CF091B60C80818F7D80830E94D40478
:101AE00010E000E00E94780582E399E00E9476050C
:101AF000C8010E94E70587E399E00E94760589E323
:101B000099E00E947605F801E858FE4F84910E9402
:101B1000E40481E599E00E94760598012E5C3E4F31
:101B20007901F901849190E0805C9F4F0E94E70564
:101B300087E599E00E9476058FE499E00E9476059A
:101B4000F70184910E94E4040F5F1F4F06331105D3
:101B500009F0C8CF0E9478050E947C0990E080E0DF
:101B60000E94FC0761E088E10E94EB0161E086E1F0
:101B70000E94EB0161E08EE10E94EB0161E080E2F6
:101B80000E94EB0161E082E20E94EB0161E084E2ED
:101B90000E94EB01C090960CD090970CE090980CAE
:101BA000F090990CC092920CD092930CE092940C0D
:101BB000F092950C0E949E026093960C7093970C85
:101BC0008093980C9093990C8B019C010C191D0922
:101BD0002E093F09013412442F40310540F0609333
:101BE000920C7093930C8093940C9093950C80912D
:101BF000910C8130F1F408E312E0B2E0EB2EB2E098
:101C0000FB2EDE2CD094F70161917F0160FD0EC0A8
:101C100063FF0CC067FF0AC0319780E2862780838C
:101C2000609560728D2D8E0D0E94BD010E151F05F1
:101C300051F780910002813009F066C08BE50E9467
:101C40008F03E0900102F12C10E000E0F2E0EF16CB
:101C5000F10449F5802F0E94270297FD03966C013D
:101C6000D594C794D594C794FC01A6E0F595E79563
:101C7000AA95E1F7EF70FF27EE59FD4F80810E9492
:101C80008F03F601EF70FF27EE59FD4F80810E9410
:101C90008F038FE89AE00E9476050F5F1F4F003197
:101CA0001105A1F62EC023E0E216F10459F4802FAD
:101CB0000E94270264E470E00E94B21ECB010E94E1
:101CC0001405E7CF31E0E316F10439F7802F0E94C5
:101CD0002702BC01990F880B990B0E94761C20E00B
:101CE00030E040E85AE30E94D51C20E030E040EAB2
:101CF00050E40E94D51C42E00E94F9050F30110506
:101D000041F68DE50E948F0380913E0C813059F59C
:101D10001C828C810E9494014C814F5F4C8346331E
:101D2000C1F78BE50E948F030091010210E01C8235
:101D30000230110521F48C810E94940106C0033009
:101D4000110531F48C810E94FC040E94E70503C058
:101D50000130110581F35C815F5F5C83563341F78D
:101D60008DE50E948F0380913D0C813009F02EC0DB
:101D700080913C0C8C830E948F03EC81E156EA3108
:101D800008F0DCC10E2E000CFF0BE753F14F0C9452
:101D9000071FE30E740F760F780F7A0F7C0F7E0FFC
:101DA000800F9E10830F5C10EB0F9E109E109E10F4
:101DB0009E109E109E109E109E109E109E109E10B3
:101DC000860F6E104F1080B10E94E40483EA9CE0FD
:101DD0000E940A03892B41F083EA9CE00E94E802FA
:101DE0009093900C80938F0C80918F0C9091900C1D
:101DF00097FD31C08F32910551F020913F0C2F3269
:101E000011F00C947B188D30910509F4BAC1C09083
:101E1000380CD090390CE0903A0CF0903B0CC11487
:101E2000D104E104F10411F40C940D1B88309105E8
:101E300009F089C191E0C91AD108E108F108C092FE
:101E4000380CD092390CE0923A0CF0923B0CF6012F
:101E5000E15CF34F10828FEF9FEF9093900C809393
:101E60008F0C80910002813051F080913E0C8130C6
:101E700031F080913D0C813011F00C94091B809160
:101E8000380C9091390CA0913A0CB0913B0C892BF5
:101E90008A2B8B2B11F40C94E61A84E69BE00E94AB
:101EA00076050FE31CE080E090E0DC016C017D0131
:101EB0003FEFC31AD30AE30AF30A4091380C50915A
:101EC000390C60913A0C70913B0C84179507A6076A
:101ED000B70710F00C94D61AF80181918F010E9477
:101EE0008F03D701C601E2CF83B16ECF86B16CCF2D
:101EF00089B16ACF8CB168CF8FB166CF82B364CF1E
:101F00008091000161CF809103015ECF8091010239
:101F1000813009F063C081E60E948F0380B10E9486
:101F2000E4048CE70E948F0382E60E948F0383B152
:101F30000E94E4048CE70E948F0383E60E948F03D3
:101F400086B10E94E4048CE70E948F0384E60E941D
:101F50008F0389B10E94E4048CE70E948F0385E619
:101F60000E948F038CB10E94E4048CE70E948F03CF
:101F700086E60E948F038FB10E94E4048CE70E94E2
:101F80008F0387E60E948F0382B30E94E4048CE7EC
:101F90000E948F0388E60E948F03809100010E94B7
:101FA000E4048CE70E948F038AE60E948F038091ED
:101FB00003010E94E4048CE70E948F038BE60E94D9
:101FC0008F03809106010E94E4048CE70E948F0336
:101FD0008CE60E948F0380910901F6CE8DE699E090
:101FE0000E94760581E60E948F0380B160E170E077
:101FF0000E946F0582E60E948F0383B160E170E06A
:102000000E946F0583E60E948F0386B160E170E055
:102010000E946F0584E60E948F0389B160E170E041
:102020000E946F0585E60E948F038CB160E170E02D
:102030000E946F0586E60E948F038FB160E170E019
:102040000E946F0587E60E948F0382B360E170E013
:102050000E946F0588E60E948F038091000160E175
:1020600070E00E946F058AE60E948F038091030151
:1020700060E170E00E946F058BE60E948F03809103
:10208000060160E170E00E946F058CE60E948F03FC
:102090008091090160E170E00E946F0597CE809108
:1020A0000102813061F486E60E948F038FB10E94A5
:1020B000E4048BE60E948F038091060185CE8DE6B5
:1020C00099E00E9476058FB160E170E00E946F0593
:1020D0008CE70E948F0380910601DCCF8091010282
:1020E0008130E9F48FE699E00E9476058DB10E9477
:1020F000E40484E799E00E947605809101010E9442
:10210000E40489E799E00E9476058EB10E94E40418
:1021100080E899E00E9476058091020155CE8DE617
:1021200099E00E9476058DB160E170E00E946F0534
:102130008CE70E948F0380910101ACCF87E899E082
:102140000E94B10543CE009709F485CEE0E5CE1696
:10215000D104E104F10408F07ECEF601E15CF34F16
:1021600080830E948F03FFEFCF1ADF0AEF0AFF0A76
:10217000C092380CD092390CE0923A0CF0923B0CA1
:102180006ACE8091380C9091390CA0913A0CB091A4
:102190003B0C0196A11DB11D8093380C9093390C16
:1021A000A0933A0CB0933B0C815C934FFC011082DE
:1021B00080913F0C8F3209F029C49091400C892FF7
:1021C0008F7D81548A3108F4A92E9091410C892F7A
:1021D0008F7D81548A3108F49B838091440CE09177
:1021E000430C2091420C8053990B2053330BE05346
:1021F000FF0B8A30910530F544E6429F7001439F02
:10220000F00C11244AE04E9F90014F9F300D112495
:10221000E20EF31EE80EF91EF2E6AF1228C02B8183
:1022200020933C0C81E080933D0C0E94780582ED68
:102230009AE00E94760581E090E00E94E7050E9406
:102240007805E6C3EA30F10548F079012A30310516
:1022500018F371EFE72E78EDF72EDECF8AE0829F3C
:102260007001839FF00C1124EE0EFF1ED5CF32E7D4
:10227000A312F9C4EB81E156E83108F001C50E2E36
:10228000000CFF0BEA5BFE4E0C94071F98134016E0
:10229000B6152812E0120B154016401640164016CF
:1022A00040164016401640164016F21440164016CE
:1022B0005E114016401640164016591441E04E0D6E
:1022C0004C83412C512C320183EA9CE00E94E802AD
:1022D000019609F0AACF0E9444026093960C709375
:1022E000970C8093980C9093990C5FEF451A550AC0
:1022F000650A750A8E2D0E94270264E470E00E9430
:10230000B21ECB010E9414058C810E94270264E456
:1023100070E00E94B21ECB010E941405C301B201FD
:102320002FE430E040E050E00E94E81E672B682B6D
:10233000692B11F40E9478058091960C9091970C6E
:10234000A091980CB091990C4091920C5091930CE3
:102350006091940C7091950C841B950BA60BB70B98
:1023600081349244AF40B10508F4AECF0E947805A5
:1023700082E399E00E947605C7010E94E7058FE895
:102380009AE00E94760587EA99E00E947605C301EB
:10239000B2010E94BD058EEA99E00E947605609127
:1023A000960C7091970C8091980C9091990C0091DB
:1023B000920C1091930C2091940C3091950C601B11
:1023C000710B820B930B4AE050E00E946D0583EB8A
:1023D00099E00E94760586EB99E00E94760560916F
:1023E000960C7091970C8091980C9091990C00919B
:1023F000920C1091930C2091940C3091950C601BD1
:10240000710B820B930BA30192010E94C61ECA019D
:10241000B9014AE050E00E946D0583EB99E00E940B
:1024200076050E9478050E9469020E94440260932A
:10243000960C7093970C8093980C9093990C6093E2
:10244000920C7093930C8093940C9093950C39CFCD
:10245000412C512C320183EA9CE00E94E802019653
:1024600009F0E3CE0E9444026093960C7093970C9F
:102470008093980C9093990C8FEF481A580A680A29
:10248000780A8E2D0E9494010E94E705C301B201D3
:102490002FE430E040E050E00E94E81E672B682BFC
:1024A000692B11F40E9478058091960C9091970CFD
:1024B000A091980CB091990C4091920C5091930C72
:1024C0006091940C7091950C841B950BA60BB70B27
:1024D00081349244AF40B10508F4BDCF0E94780525
:1024E00082E399E00E947605C7010E94E7058FE824
:1024F0009AE00E94760587EA99E00E947605C3017A
:10250000B2010E94BD058EEA99E00E9476056091B5
:10251000960C7091970C8091980C9091990C009169
:10252000920C1091930C2091940C3091950C601B9F
:10253000710B820B930B4AE050E00E946D0583EB18
:1025400099E00E94760586EB99E00E9476056091FD
:10255000960C7091970C8091980C9091990C009129
:10256000920C1091930C2091940C3091950C601B5F
:10257000710B820B930BA30192010E94C61ECA012C
:10258000B9014AE050E00E946D0583EB99E00E949A
:1025900076050E9478050E9469020E9444026093B9
:1025A000960C7093970C8093980C9093990C609371
:1025B000920C7093930C8093940C9093950C48CF4D
:1025C000412C512C320183EA9CE00E94E8020196E2
:1025D00009F02BCE0E9444026093960C7093970CE6
:1025E0008093980C9093990C2FEF421A520A620A2A
:1025F000720A8E2D0E94FC040E94E705C301B201FD
:102600002FE430E040E050E00E94E81E672B682B8A
:10261000692B11F40E9478058091960C9091970C8B
:10262000A091980CB091990C4091920C5091930C00
:102630006091940C7091950C841B950BA60BB70BB5
:1026400081349244AF40B10508F4BDCF0E947805B3
:1026500082E399E00E947605C7010E94E7058FE8B2
:102660009AE00E94760587EA99E00E947605C30108
:10267000B2010E94BD058EEA99E00E947605609144
:10268000960C7091970C8091980C9091990C0091F8
:10269000920C1091930C2091940C3091950C601B2E
:1026A000710B820B930B4AE050E00E946D0583EBA7
:1026B00099E00E94760586EB99E00E94760560918C
:1026C000960C7091970C8091980C9091990C0091B8
:1026D000920C1091930C2091940C3091950C601BEE
:1026E000710B820B930BA30192010E94C61ECA01BB
:1026F000B9014AE050E00E946D0583EB99E00E9429
:1027000076050E9478050E9469020E944402609347
:10271000960C7093970C8093980C9093990C6093FF
:10272000920C7093930C8093940C9093950C48CFDB
:10273000412C512C320183EA9CE00E94E802019670
:1027400009F073CD0E9444026093960C7093970C2D
:102750008093980C9093990C5FEF451A550A650A7F
:10276000750A8E2D0E942702BC01990F880B990BC8
:102770000E94761C20E030E040E85AE30E94D51C1D
:1027800020E030E040EA50E40E94D51C42E00E9484
:10279000F9058CEB99E00E9476058091960C90915A
:1027A000970CA091980CB091990C4091920C50917B
:1027B000930C6091940C7091950C841B950BA60B57
:1027C000B70B81349244AF40B10508F4B4CF0E94F6
:1027D000780582E399E00E947605C7010E94E7052B
:1027E0008FE89AE00E94760587EA99E00E947605D4
:1027F000C301B2010E94BD058EEA99E00E947605F0
:102800006091960C7091970C8091980C9091990C16
:102810000091920C1091930C2091940C3091950C96
:10282000601B710B820B930B4AE050E00E946D0518
:1028300083EB99E00E94760586EB99E00E9476058D
:102840006091960C7091970C8091980C9091990CD6
:102850000091920C1091930C2091940C3091950C56
:10286000601B710B820B930BA30192010E94C61E89
:10287000CA01B9014AE050E00E946D0583EB99E07E
:102880000E9476050E9478050E9469020E94440217
:102890006093960C7093970C8093980C9093990C7E
:1028A0006093920C7093930C8093940C9093950C7E
:1028B0003FCFC12CD12C760183EA9CE00E94E80234
:1028C000019609F0B2CC0E9444022B013C014092D7
:1028D000960C5092970C6092980C7092990C2FEF76
:1028E000C21AD20AE20AF20A8CE70E948F03809190
:1028F000920C9091930CA091940CB091950C481A65
:10290000590A6A0A7B0A31E4431632E453063FE06F
:102910006306710488F20E9478058FEB99E00E94AB
:102920007605C701B6010E94BD058EEA99E00E94B6
:1029300076056091960C7091970C8091980C90910F
:10294000990C0091920C1091930C2091940C309161
:10295000950C601B710B820B930B4AE050E00E94B8
:102960006D0583EB99E00E94760589EC99E00E9461
:1029700076056091960C7091970C8091980C9091CF
:10298000990C0091920C1091930C2091940C309121
:10299000950C601B710B820B930BA70196010E9493
:1029A000C61ECA01B9014AE050E00E946D0583EBE2
:1029B00099E00E9476050E9478050E9469020E94B3
:1029C00044026093960C7093970C8093980C9093AC
:1029D000990C6093920C7093930C8093940C909349
:1029E000950C67CF88ED99E00E94B105F701E85892
:1029F000FE4F84910E94E4048CEE99E00E947605DB
:102A0000F701EE5CFE4F84910E94E4040E94A10550
:102A10000E94D40420CA8DEF99E00E9476058FE8C9
:102A20009AE00E947605C7010E94E70580E09AE0DF
:102A30000E9476050E947805EC8260E08E2D0E944F
:102A4000EB018EE19AE00E9476050E947805412C08
:102A5000512C320129813A8124363105C4F48C810C
:102A60000E949401092E000CAA0BBB0B480E591EA4
:102A70006A1E7B1EC301B2010E94BD050E9478053B
:102A800049815A814F5F5F4F5A834983E3CF5FE1AA
:102A900045165104610471040CF4B8CF80E09AE04B
:102AA0000E9476050E947805C7019927FC01E85825
:102AB000FE4F4F019C012E5C3E4F690183EA9CE072
:102AC0000E94E802019609F04EC0612C60E1762E6A
:102AD000212C312C2101F4016491F6018491E82F1D
:102AE000F0E0EE0FFF1FE85EFE4F8591949100E944
:102AF00010ED23E030E0462F0E94200C6115710597
:102B00008105910509F48FC59B01AC012F5F3F4FF3
:102B10004F4F5F4F5F7060E271EA87E090E00E9484
:102B2000C61E220E331E441E551EF1E06F1A710898
:102B300091F6C7010E94E7058FE499E00E947605AF
:102B4000C201B10120E030E140E050E00E94E81E07
:102B5000CA01B9010E94BD0583E69AE00E9476058C
:102B60000E947805ABCF0E94780550CF61E08DE0E0
:102B70000E94BD010E949E022B013C018E2D0E94ED
:102B800027028838924084F40E949E0264197509D5
:102B900086099709613D77408105910578F386E6BE
:102BA0009AE00E94B10532CF0E949E029B01AC01C7
:102BB000241935094609570929013A01CA01B90101
:102BC0000E94741C20E030E44CE156E40E94001E98
:102BD00020E030E04AE754E40E94D51C6B017C0100
:102BE0008EE69AE00E94760542E0C701B6010E9497
:102BF000F9058CE79AE00E94B1054AE050E0C30174
:102C0000B2010E946D0589E89AE00E94760520E0F5
:102C100030E040E85FE3C701B6010E94A81E181625
:102C20009CF4C701B6010E94721E0E94BD058CE78C
:102C30009AE00E94B10560E08DE00E94BD0160E075
:102C40008DE00E94EB01E2CE20E030E04AE754E460
:102C5000C701B6010E94D51C0E94721E0E94BD05CC
:102C600081E99AE0E6CF37E7A312A2C04B8149364B
:102C700009F48DC054F4423609F440C04836C1F01E
:102C80008DE99AE00E947605C1CE5B815C3621F128
:102C90005537B1F7C7010297C49708F0B7CEF701CF
:102CA000EE5FFD4F80818F7D8068808360E00CC087
:102CB000C7010297C49708F0A9CEF701EE5FFD4F58
:102CC0008081806A808361E08E2D0E94EB0161E04B
:102CD0008E2D0E94BD019ACEC7010297C49708F0BD
:102CE00095CEF701EE5FFD4F80818F7D80688083F8
:102CF00061E08E2D0E94EB0160E0EACFC7010297F0
:102D0000C49708F083CE8BEB9AE00E947605C7014A
:102D10000E94E70587010E5F1D4FF801808183FF48
:102D20001DC0877580838DEB9AE00E94B10560E03D
:102D30008E2D0E94BD0160E08E2D0E94EB0160E0AF
:102D40008E2D0E94BD01E2E0F2E088E392E0219145
:102D500023FF17C081E08093910C58CE88EC9AE055
:102D60000E9476050E94780581E08093910CF8011D
:102D70008081886A808361E08E2D0E94EB0168E08B
:102D8000DFCF8E179F0719F71092910C3FCEC70126
:102D90000297C49708F03ACEF701EE5FFD4F8081AD
:102DA0008F77808360E08E2D0E94BD0160E0A1CF0F
:102DB000F4E6AF122BCE2B81263609F4B9C02337A7
:102DC00009F05ECFBE2C61E08E2D0E94EB019701D1
:102DD0002E5F3D4F690130E2932E10E000E083EA60
:102DE0009CE00E94E802F601F081FC83019609F064
:102DF00079C10E9444022B013C014092960C5092F2
:102E0000970C6092980C7092990C0F5F1F4F8C81F9
:102E10008925F60180836C81609560728B2D0E94FC
:102E2000BD018091920C9091930CA091940CB09163
:102E3000950C481A590A6A0A7B0AF1E44F16F2E423
:102E40005F06FFE06F06710450F20E94780582E38E
:102E500099E00E947605C7010E94E7058FE89AE095
:102E60000E94760587EA99E00E947605C8010E94D3
:102E7000E7058EEA99E00E9476056091960C7091C4
:102E8000970C8091980C9091990C4090920C5090D6
:102E9000930C6090940C7090950C641975098609D8
:102EA00097094AE050E00E946D0583EB99E00E948B
:102EB000760586EB99E00E9476056091960C7091FC
:102EC000970C8091980C9091990C4090920C509096
:102ED000930C6090940C7090950C64197509860998
:102EE00097099801110F440B550B0E94C61ECA0189
:102EF000B9014AE050E00E946D0583EB99E00E9421
:102F000076050E9478050E9469020E94440260933F
:102F1000960C7093970C8093980C9093990C6093F7
:102F2000920C7093930C8093940C9093950C55CFC6
:102F3000BE2C61E08E2D0E94EB01A7014E5F5D4F1C
:102F40006A01C7019927FC01E858FE4F4F019C0117
:102F50002E5C3E4F190110E000E083EA9CE00E94E5
:102F6000E802F6017080019609F0B3C00E944402A5
:102F70006093960C7093970C8093980C9093990C97
:102F80000F5F1F4F80E28725F6018083F401849153
:102F9000F1019491E92FF0E0EE0FFF1FE250FF4F97
:102FA000A591B4919FB72C9175FE91C08095822315
:102FB0008C939FBF8091960C9091970CA091980C48
:102FC000B091990C4091920C5091930C6091940C9B
:102FD0007091950C841B950BA60BB70B8134924412
:102FE000AF40B10508F4B9CF0E94780582E399E0BB
:102FF0000E947605C7010E94E7058FE89AE00E94CB
:10300000760587EA99E00E947605C8010E94E705E7
:103010008EEA99E00E9476056091960C7091970C6B
:103020008091980C9091990C4090920C5090930C38
:103030006090940C7090950C641975098609970935
:103040004AE050E00E946D0583EB99E00E9476050E
:1030500086EB99E00E9476056091960C7091970C32
:103060008091980C9091990C4090920C5090930CF8
:103070006090940C7090950C6419750986099709F5
:103080009801110F440B550B0E94C61ECA01B901CD
:103090004AE050E00E946D0583EB99E00E947605BE
:1030A0000E9478050E9469020E9444026093960C77
:1030B0007093970C8093980C9093990C6093920C5A
:1030C0007093930C8093940C9093950C44CF822B27
:1030D0006FCF60E08B2D0E94EB01E89475F8F6014C
:1030E0007082A3C860E08B2D0E94EB012C812F7DA4
:1030F000F60120839AC88337910529F481E08093F3
:1031000001020C942B0F8636910511F482E0F7CF63
:103110008736910511F483E0F2CF8136910569F489
:1031200080910002813021F4109200020C942B0F48
:1031300081E0809300020C942B0F8436910569F492
:1031400080913E0C813021F410923E0C0C942B0F98
:1031500081E080933E0C0C942B0F8936910509F089
:1031600048C10E94780589ED9AE00E94B10502E00D
:1031700012E0F12CE12CC7010E94E7058FE499E0F1
:103180000E947605F80181918F010E94E40484EF8A
:103190009AE00E947605FFEFEF1AFF0A26E3E21697
:1031A000F10449F70E94780586EF9AE00E947605BF
:1031B0006AE070E08091910C0E946F050E94780592
:1031C0000E94A10510E000E031E03C83FF24F3946D
:1031D00082E0E82EDD24DA9495EEC92E25ECB22E9D
:1031E000F092140C4C814093360C1092150C1092F6
:1031F000370C0E9444022B013C0180910E0C81117E
:1032000062C0E0920E0CF0920D0CD0920C0C109259
:103210000B0C10920A0C1092E90B9091E90B8C8127
:10322000880F892B8093E90B8091E80B813009F09E
:10323000A0C01092E80B0E9444022B013C01809137
:10324000E90B8093BB008091100C9091110CA09120
:10325000120CB091130C892B8A2B8B2BA1F00E949E
:1032600044022091100C3091110C4091120C50919D
:10327000130C64197509860997092617370748073B
:10328000590708F441C08091BC0083FDD8CFB092AB
:10329000BC000E9444022B013C0180910E0C823044
:1032A00009F46AC080910C0C8F3F09F487C08091AB
:1032B0000C0C803209F484C080910C0C803309F02E
:1032C00081C083E026C08091100C9091110CA091D8
:1032D000120CB091130C892B8A2B8B2B09F48DCFF8
:1032E0000E9444022091100C3091110C4091120C5C
:1032F0005091130C64197509860997092617370729
:103300004807590708F079CF80910F0C0E942A04D2
:1033100085E01092150C1092370C1092140C81114C
:1033200053C088E09BE00E9476055C81503120F418
:1033300087E29BE00E94760560E170E08C810E944C
:103340006F0589E29BE00E94B1050F5F1F4F9C81D2
:103350009F5F9C839F3709F043CF89E49BE0012B5B
:1033600011F08FE59BE00E94B1050E94A1050C942D
:103370002B0FC092BC008DCF8091100C9091110C3E
:10338000A091120CB091130C892B8A2B8B2B09F472
:1033900084CF0E9444022091100C3091110C409176
:1033A000120C5091130C6419750986099709261798
:1033B00037074807590708F070CFA6CF80E0A9CF9C
:1033C00082E0A7CF84E0A5CF843009F68DE29BE0B0
:1033D0000E9476058C81803120F487E29BE00E9478
:1033E000760560E170E08C810E946F050E9478058F
:1033F000AECF8A37910579F480913D0C813039F454
:1034000010923D0C8AE780933C0C0C942B0F81E0CA
:1034100080933D0CF7CF8837910561F480913D0C86
:10342000813021F410923D0C88E7EDCF81E080934C
:103430003D0CFACF8937910561F480913D0C8130C4
:1034400021F410923D0C89E7DECF81E080933D0CA2
:10345000FACF8D36910529F40E9478050E947C09E7
:1034600084CF8737910521F560E088E10E94BD0196
:1034700061E080E20E94BD0140E066E18EE10E94D1
:10348000D10661E088E10E94BD0160E088E10E9410
:10349000BD0161E080E20E94BD0141E066E18EE194
:1034A0000E94D10661E088E10E94BD010C942B0FBF
:1034B00085369105D9F460E088E10E94BD0161E0A4
:1034C00084E20E94BD0140E066E182E20E94D106F2
:1034D00041E066E182E20E94D10640E066E182E2DC
:1034E0000E94D10640E066E182E2DACF80379105A2
:1034F00009F03CC0F12CE12C0E94780582E399E0B0
:103500000E947605C7010E94E70587E399E00E94C3
:10351000760589E399E00E947605F701E858FE4FA9
:1035200084910E94E40481E599E00E947605870178
:103530000E5C1E4FF801849190E0805C9F4F0E94CA
:10354000E70587E599E00E9476058FE499E00E94FF
:103550007605F80184910E94E404FFEFEF1AFF0A58
:1035600026E3E216F10409F0C7CFFFCE84379105B8
:1035700021F40E948F050C942B0F8F33910531F4A9
:1035800081E090E00E94FC070C942B0F0D9731F422
:103590000E94780585EA99E00E94760580918F0C5B
:1035A0009091900C0E94E7050C942B0F87E69BE00E
:1035B0000E9476056091380C7091390C80913A0C1C
:1035C00090913B0C4AE050E00E946D05C090960C33
:1035D000D090970CE090980CF090990C8091920C00
:1035E0009091930CA091940CB091950CC81AD90AA3
:1035F000EA0AFB0A84E50E948F034AE050E0C70113
:10360000B6010E946D058CE792E00E9476050E944B
:1036100078050E94B4030C94CA0D009711F40C9421
:103620002B0F0C94AD100E9405200F931F93CF9386
:10363000DF938230910510F482E090E0E0914E0D2E
:10364000F0914F0D30E020E0B0E0A0E0309799F429
:103650002115310509F44AC0281B390B24303105E6
:10366000D8F58A819B816115710589F1FB019383EE
:103670008283FE0111C0408151810281138148176C
:103680005907E0F04817590799F4109761F012961E
:103690000C93129713961C933296CF01DF91CF9122
:1036A0001F910F91089500934E0D10934F0DF4CF7D
:1036B0002115310551F04217530738F0A901DB01FC
:1036C0009A01BD01DF01F801C1CFEF01F9CF90935D
:1036D0004F0D80934E0DCDCFFE01E20FF31F81936E
:1036E00091932250310939832883D7CF20914C0DF3
:1036F00030914D0D232B41F420913A0230913B0241
:1037000030934D0D20934C0D2091380230913902A9
:103710002115310541F42DB73EB740913C0250913F
:103720003D02241B350BE0914C0DF0914D0DE2173D
:10373000F307A0F42E1B3F0B2817390778F0AC01D4
:103740004E5F5F4F2417350748F04E0F5F1F5093B1
:103750004D0D40934C0D819391939FCFF0E0E0E0AD
:103760009CCFCF93DF930097E9F0FC01329713824F
:103770001282A0914E0DB0914F0DED0130E020E08E
:103780001097A1F420813181820F931F20914C0D5D
:1037900030914D0D2817390709F061C0F0934D0D98
:1037A000E0934C0DDF91CF910895EA01CE17DF072A
:1037B000E8F54A815B819E0141155105B1F7E901A8
:1037C000FB83EA8349915991C40FD51FEC17FD077C
:1037D00061F4808191810296840F951FE90199839C
:1037E0008883828193819B838A83F0E0E0E0129654
:1037F0008D919C9113970097B9F52D913C9111975C
:10380000CD010296820F931F20914C0D30914D0DEA
:103810002817390739F6309751F510924F0D10924D
:103820004E0DB0934D0DA0934C0DBCCFD383C283EE
:1038300040815181840F951FC817D90761F44E5FED
:103840005F4F88819981480F591F518340838A8136
:103850009B81938382832115310509F0B0CFF093CA
:103860004F0DE0934E0D9ECFFD01DC01C0CF1382C2
:103870001282D7CFBB274A3031F4992322F4BDE21C
:10388000909581959F4F0C94461CBB27FB015527B3
:10389000AA27880F991FAA1FA41710F0A41B8395AD
:1038A0005051B9F7A05DAA3308F0A95DA193009724
:1038B00079F7B111B1931192CB010C945F1CDC012B
:1038C000FC01672F71917723E1F7329704C07C9157
:1038D0006D9370836291AE17BF07C8F308950E947D
:1038E000B11C08F481E00895E89409C097FB3EF408
:1038F00090958095709561957F4F8F4F9F4F99233D
:10390000A9F0F92F96E9BB279395F69587957795BA
:103910006795B795F111F8CFFAF4BB0F11F460FF7A
:103920001BC06F5F7F4F8F4F9F4F16C0882311F0D2
:1039300096E911C0772321F09EE8872F762F05C0E6
:10394000662371F096E8862F70E060E02AF09A9581
:10395000660F771F881FDAF7880F9695879597F976
:103960000895990F0008550FAA0BE0E8FEEF161610
:103970001706E807F907C0F012161306E407F50763
:1039800098F0621B730B840B950B39F40A2661F0D7
:10399000232B242B252B21F408950A2609F4A1407A
:1039A000A6958FEF811D811D08950E94E81C0C943F
:1039B000591D0E944B1D38F00E94521D20F0952386
:1039C00011F00C94421D0C94481D11240C948D1D73
:1039D0000E946A1D70F3959FC1F3950F50E0551F2B
:1039E000629FF001729FBB27F00DB11D639FAA2754
:1039F000F00DB11DAA1F649F6627B00DA11D661FA3
:103A0000829F2227B00DA11D621F739FB00DA11DC3
:103A1000621F839FA00D611D221F749F3327A00D7D
:103A2000611D231F849F600D211D822F762F6A2F19
:103A300011249F5750409AF0F1F088234AF0EE0F7E
:103A4000FF1FBB1F661F771F881F91505040A9F7AB
:103A50009E3F510580F00C94421D0C948D1D5F3FDC
:103A6000E4F3983ED4F3869577956795B795F795E7
:103A7000E7959F5FC1F7FE2B880F911D969587955F
:103A800097F9089597F99F6780E870E060E00895DE
:103A90009FEF80EC089500240A9416161706180666
:103AA0000906089500240A94121613061406050642
:103AB0000895092E0394000C11F4882352F0BB0FD3
:103AC00040F4BF2B11F460FF04C06F5F7F4F8F4F36
:103AD0009F4F089557FD9058440F551F59F05F3F71
:103AE00071F04795880F97FB991F61F09F3F79F020
:103AF00087950895121613061406551FF2CF4695A2
:103B0000F1DF08C0161617061806991FF1CF869523
:103B10007105610508940895E894BB276627772707
:103B2000CB0197F908955058BB27AA270E94AB1DD7
:103B30000C94591D0E944B1D38F00E94521D20F01C
:103B400039F49F3F19F426F40C94481D0EF4E095C7
:103B5000E7FB0C94421DE92F0E946A1D58F3BA1727
:103B6000620773078407950720F079F4A6F50C9493
:103B70008C1D0EF4E0950B2EBA2FA02D0B01B90170
:103B800090010C01CA01A0011124FF27591B99F0D3
:103B9000593F50F4503E68F11A16F040A22F232FDF
:103BA000342F4427585FF3CF469537952795A7952F
:103BB000F0405395C9F77EF41F16BA0B620B730BD6
:103BC000840BBAF09150A1F0FF0FBB1F661F771F47
:103BD000881FC2F70EC0BA0F621F731F841F48F4FC
:103BE000879577956795B795F7959E3F08F0B0CF85
:103BF0009395880F08F09927EE0F9795879508956C
:103C00000E94141E0C94591D0E94521D58F00E94CF
:103C10004B1D40F029F45F3F29F00C94421D5111D7
:103C20000C948D1D0C94481D0E946A1D68F3992305
:103C3000B1F3552391F3951B550BBB27AA276217A8
:103C40007307840738F09F5F5F4F220F331F441FB5
:103C5000AA1FA9F335D00E2E3AF0E0E832D09150E9
:103C60005040E695001CCAF72BD0FE2F29D0660FD6
:103C7000771F881FBB1F261737074807AB07B0E819
:103C800009F0BB0B802DBF01FF2793585F4F3AF01F
:103C90009E3F510578F00C94421D0C948D1D5F3FA2
:103CA000E4F3983ED4F3869577956795B795F795A5
:103CB0009F5FC9F7880F911D9695879597F908958D
:103CC000E1E0660F771F881FBB1F62177307840729
:103CD000BA0720F0621B730B840BBA0BEE1F88F738
:103CE000E09508950E94791E6894B1110C948D1D81
:103CF00008950E94721D88F09F5798F0B92F992758
:103D0000B751B0F0E1F0660F771F881F991F1AF0C6
:103D1000BA95C9F714C0B13091F00E948C1DB1E082
:103D200008950C948C1D672F782F8827B85F39F081
:103D3000B93FCCF3869577956795B395D9F73EF45F
:103D400090958095709561957F4F8F4F9F4F089507
:103D50000E94B11C08F48FEF08950E94B11C880BDB
:103D6000990B089597FB072E16F4009407D077FD62
:103D700009D00E94101F07FC05D03EF49095819554
:103D80009F4F0895709561957F4F0895A1E21A2E77
:103D9000AA1BBB1BFD010DC0AA1FBB1FEE1FFF1FEF
:103DA000A217B307E407F50720F0A21BB30BE40B3F
:103DB000F50B661F771F881F991F1A9469F7609586
:103DC0007095809590959B01AC01BD01CF01089540
:103DD000052E97FB1EF400940E94FF1E57FD07D08E
:103DE0000E94C61E07FC03D04EF40C94FF1E509593
:103DF0004095309521953F4F4F4F5F4F08959095D7
:103E00008095709561957F4F8F4F9F4F0895EE0F6E
:103E1000FF1F0024001C0BBE0790F691E02D0994B3
:103E2000AA1BBB1B51E107C0AA1FBB1FA617B707E0
:103E300010F0A61BB70B881F991F5A95A9F78095FC
:103E40009095BC01CD0108954F925F926F927F9241
:103E50008F929F92AF92BF92CF92DF92EF92FF929A
:103E60000F931F93CF93DF938C01009799F4CB01AD
:103E7000DF91CF911F910F91FF90EF90DF90CF9046
:103E8000BF90AF909F908F907F906F905F904F907A
:103E90000C94151BFC01E60FF71F9C012250310901
:103EA000E217F30708F4AEC0D901CD91DC91119768
:103EB000C617D70720F1C530D10578F0CE01049799
:103EC0008617970750F0C61BD70B2297C193D19343
:103ED0006D937C93CF010E94B11BC801DF91CF91FC
:103EE0001F910F91FF90EF90DF90CF90BF90AF9018
:103EF0009F908F907F906F905F904F9008955B019F
:103F0000AC1ABD0A4C018C0E9D1EA0914E0DB091B5
:103F10004F0D512C412CF12CE12C109731F5809153
:103F20004C0D90914D0D8815990509F05CC0461611
:103F3000570608F058C080913802909139020097D6
:103F400041F48DB79EB740913C0250913D02841BD5
:103F5000950BE817F90708F055C0F0934D0DE09365
:103F60004C0DF90171836083B8CF8D919C911197AD
:103F700012966C90129713967C901397A815B9051A
:103F800059F56C0142E0C40ED11CCA14DB0420F1C7
:103F9000AC014A195B09DA011296159780F062822A
:103FA000738251834083D9016D937C93E114F104B2
:103FB00071F0D7011396FC93EE9312978ECF229651
:103FC0008C0F9D1FF90191838083F301EFCFF09354
:103FD0004F0DE0934E0D81CF4816590608F42C0181
:103FE0007D01D3019ACFCB010E94151B7C01009764
:103FF00049F0AE01B8010E940A20C8010E94B11B1D
:1040000087016BCF10E000E068CF81E090E0F8948A
:104010000C941A20FB01DC0102C001900D9241506A
:104020005040D8F70895FB01DC0101900D9200206B
:10403000E1F70895F894FFCF0101808000000000AF
:104040000000000000000000000000000000808070
:104050000100010001000100010001000100010058
:10406000010001000000000000000000000000004E
:104070000000500D8000000000004203AC02D90295
:1040800094030A03E802FC0200000000A204750485
:10409000D1044B046E045B044C04303132333435AC
:1040A00036373839414243444546000D0A007469A9
:1040B0006D653D006D7300506175736520707265AC
:1040C00073732061206B65792D3E5F006E616E0019
:1040D000696E66006F76660041726475696E6F2066
:1040E0004C6F67696320537461746520416E616C25
:1040F000797A6572005072657373203F2020666F75
:104100007220417661696C61626C6520436F6D6DF0
:10411000616E6473005072657373202F2020746F7A
:104120002063726561746520436F6D6D616E646CB0
:10413000696E65002D2D2D2D2D2D2D2D2D2D2D2D27
:104140002D2D2D2D2D52756E6E696E6720436F6D6E
:104150006D616E646C696E652D2D2D2D2D2D2D2DAF
:104160002D2D2D2D2D2D2D2D2D2D2D2D005072650C
:1041700073732067202046617374657220536361F6
:104180006E20413D2F2E337620207265736F6C7543
:1041900074696F6E005072657373206620204661EB
:1041A0007374205363616E202020413D2E3032769F
:1041B00020207265736F6C7574696F6E0050726544
:1041C000737320732020536C6F77205363616E20CC
:1041D0002020413D2E30303576207265736F6C752E
:1041E00074696F6E00507265737320742020446987
:1041F00073706C617973206D696C697365636F6E40
:1042000064732073696E63652070726F6772616D8D
:104210002073746172740050726573732061202082
:10422000416E616C6F67205363616E0050726573FD
:1042300073206420204469676974616C2053636152
:104240006E005072657373206D2020417661696C39
:1042500061626C65204D656D6F7279005072657397
:104260007320692020493263205363616E6E65724A
:1042700020262061726475696E6F3132383044696E
:10428000676974616C4269744D617020417272613A
:1042900079005072657373207A20205265676973C4
:1042A00074657220506F72742046264B20536361F0
:1042B0006E005072657373207920205265676973B0
:1042C00074657220506F72742045264820536361D4
:1042D0006E00507265737320782020414C4C205042
:1042E0006F727420506F727420412D4C20536361A3
:1042F0006E00507265737320652020382042697407
:10430000205368696674205265676973746572200A
:1043100050696E733A636C6F636B002C656E6162FB
:104320006C653A002C646174613A00507265737375
:1043300020772020382042697420536869667420F1
:1043400052656769737465722050696E733A636C65
:104350006F636B0050726573732070202050726918
:104360006E747320616C6C206469676974616C5051
:10437000696E546F4269744D61736B20746F206471
:1043800069676974616C50696E546F506F72742004
:1043900000204469676974616C2050696E73002D58
:1043A0002D2D2D2D2D2D2D2D2D2D2D2D2D2D2D2D3D
:1043B0002F572057524954452D2D2D2D2D2D2D2D64
:1043C0002D2D2D2D2D2D2D2D2D2D2D2D2D2D2D2D1D
:1043D0002D2D2D2D2D2D0077622320202020204DE6
:1043E000616B65732070696E23204F7574707574EE
:1043F00020616E6420424C494E4B53206974204822
:104400004947482F4C4F570064662F647323202080
:10441000424C494E4B53207E386B687A2052756E61
:1044200073203120736563207468656E2070617538
:1044300073657320666F7220313030206D696C6C4B
:10444000697365637320666F722053657269616C6E
:104450002E726561640077682320202020204D6142
:104460006B65732070696E23204F757470757420AE
:104470006173204849474820007775232020202079
:10448000204D616B65732070696E232050756C6CD4
:1044900055702000776C2320202020204D616B6513
:1044A000732070696E23204F75747075742061736A
:1044B000204C4F570077692320202020204D616B2E
:1044C00065732070696E2320617320496E70757466
:1044D000002D2D2D2D2D2D2D2D2D2D2D2D2D2D2D39
:1044E0002D2D2F5220524541442D2D2D2D2D2D2D7A
:1044F0002D2D2D2D2D2D2D2D2D2D2D2D2D2D2D2DEC
:104500002D2D2D2D2D2D2D007278202020202020C6
:1045100031736563205458203131356B62617564A5
:104520002831326B636861727334386B62697473FB
:1045300074617465734D617829207573696E6720A5
:104540004845582050726F7461636F6C0072642329
:1045500020202020205265616420646967697461AD
:104560006C2070696E232076616C756520646967C4
:104570006974616C52656164280072652320202093
:10458000202052656164206469676974616C2070E1
:10459000696E232076616C75652064696769746152
:1045A0006C52656164466173742800726123202037
:1045B0002020205265616420616E616C6F6720204D
:1045C00070696E232076616C756520413D2E3376CF
:1045D00020207265736F6C7574696F6E002D2D2DC0
:1045E0002D2D2D2D2D2D2D2D2D2D2D2D2D2D2F2006
:1045F00045787065726D656E74616C206F722042D3
:10460000726F6B652D2D2D2D2D2D2D2D2D2D2D2DDD
:104610002D2D2D2D2D0072662320202020204D656C
:1046200061737572657320467265712070696E23BF
:104630002052656164730062242020202020202401
:10464000203D206C6574746572206F66207265670A
:10465000697374657220706F727420746F20726554
:10466000616420612C622C632C642C652C662C67A1
:104670002C682C6A2C6B2C6C007263232020202069
:1046800020526561642043617061636974616E6387
:10469000652076616C756520616E616C6F67207056
:1046A000696E2320302D31352C2074616B657320A9
:1046B0007E20327365637320000A2D2D2D204672F3
:1046C0006565204D656D6F727920696E2062797421
:1046D00065732D2D2D0046726565204D656D6F72D9
:1046E000793D00537461636B2D486561703D002D09
:1046F0002D2D2073656374696F6E2073697A652050
:1047000073756D6D617269657320696E206279746D
:1047100065732D2D2D0072616D20202073697A65DF
:104720003D002E646174612073697A653D002E62DC
:104730007373202073697A653D006865617020207D
:1047400073697A653D00737461636B2073697A6580
:104750003D00667265652073697A65313D00667259
:1047600065652073697A65323D0070696E3D007C35
:10477000006469676974616C50696E546F42697452
:104780004D61736B2878293D007C504F52540020B6
:104790006469676974616C50696E546F506F7274AC
:1047A0002878293D0024004444526500444452685E
:1047B000007C504F52546500504F52543D680048A1
:1047C0006F77207468652048656C6C20646964208C
:1047D0004920656E6420757020686572653F0063CE
:1047E0006F756E743D0020696E2000757300206146
:1047F00076673D002C200043686172732054583D59
:1048000000206176672070657220636861723D00E8
:104810006469676974616C50696E546F4269744D64
:1048200061736B006469676974616C50696E546F81
:10483000506F72740066200020446973706C617957
:104840007320667265712074696C6C206B65797079
:104850007265737320002050696E206368616E6713
:104860006573207265616420617320636F756E7477
:10487000206966206E6F20636F756E7420746865A2
:104880006E2066726571206D6561737572656D6508
:104890006E742061626F7274656400687A00546996
:1048A0006D656F75740043617061636974616E63F7
:1048B000653A2000206D6963726F466172616473AE
:1048C00000206D532020202000206E616E6F466115
:1048D000726164730057686174207468652048656C
:1048E0006C6C20646F65732074686973206D6561FA
:1048F0006E3F0062003D424C494E4B204F46460001
:104900003D424C494E4B204F4E004552524F523D76
:104910000061726475696E6F31323830446967695D
:1049200074616C4269744D61703A20002C00676CB0
:104930006F62616C626C696E6B73746174653D006B
:104940004932432064657669636520666F756E64DD
:104950002061742061646472657373203078003064
:104960000020202100556E6B6E6F776E206572728D
:104970006F72206174206164647265737320307893
:10498000004E6F2049324320646576696365732069
:10499000666F756E640A00646F6E6500205B005D73
:0249A0002000F5
:020000040001F9
:10F000000C9472F80C9492F80C9492F80C9492F878
:10F010000C9492F80C9492F80C9492F80C9492F848
:10F020000C9492F80C9492F80C9492F80C9492F838
:10F030000C9492F80C9492F80C9492F80C9492F828
:10F040000C9492F80C9492F80C9492F80C9492F818
:10F050000C9492F80C9492F80C9492F80C9492F808
:10F060000C9492F80C9492F80C9492F80C9492F8F8
:10F070000C9492F80C9492F80C9492F80C9492F8E8
:10F080000C9492F80C9492F80C9492F80C9492F8D8
:10F090000C9492F80C9492F80C9492F80C9492F8C8
:10F0A0000C9492F80C9492F80C9492F80C9492F8B8
:10F0B0000C9492F80C9492F80C9492F80C9492F8A8
:10F0C0000C9492F80C9492F80C9492F80C9492F898
:10F0D0000C9492F80C9492F80C9492F80C9492F888
:10F0E0000C9492F811241FBECFEFD1E2DEBFCDBF4A
:10F0F00012E0A0E0B2E0EEEDFEEF01E00BBF02C0D7
:10F1000007900D92A833B107D9F71BBE13E0A8E30F
:10F11000B2E001C01D92A334B107E1F70E9412FAD8
:10F120000C946DFF0C9400F8982F959595959595F6
:10F130009595905D8F708A301CF1282F295A809107
:10F140003802813019F0823071F008958091C0004A
:10F1500085FFFCCF9093C6008091C00085FFFCCF57
:10F160002093C60008958091C80085FFFCCF90933E
:10F17000CE008091C80085FFFCCF2093CE0008957B
:10F18000282F205DDCCF982F80913802813019F034
:10F19000823041F008958091C00085FFFCCF9093AC
:10F1A000C60008958091C80085FFFCCF9093CE00E3
:10F1B0000895EF92FF920F931F9380913802813050
:10F1C00069F1823031F080E01F910F91FF90EF9054
:10F1D0000895EE24FF2487018091C80087FD17C0A1
:10F1E0000894E11CF11C011D111D81E4E81682E464
:10F1F000F8068FE0080780E0180770F3E0913A0204
:10F20000F0913B0209958091C80087FFE9CF80917A
:10F21000CE001F910F91FF90EF900895EE24FF24F0
:10F2200087018091C00087FD17C00894E11CF11C84
:10F23000011D111D81E4E81682E4F8068FE008073D
:10F2400080E0180770F3E0913A02F0913B020995D3
:10F250008091C00087FFE9CF8091C6001F910F9178
:10F26000FF90EF9008950E94D9F8982F809138026E
:10F27000813049F0823091F091366CF490330CF08B
:10F280009053892F08958091C00085FFFCCF909303
:10F29000C60091369CF39755892F08958091C80038
:10F2A00085FFFCCF9093CE00E7CF1F930E9433F9E8
:10F2B000182F0E9433F91295107F810F1F91089526
:10F2C000982F20913802992339F0213031F02230E3
:10F2D00061F091509923C9F708958091C00087FF8C
:10F2E000FCCF8091C6009150F5CF8091C80087FF78
:10F2F000FCCF8091CE009150EDCF1F93182F0E942C
:10F30000D9F8803249F0809139028F5F80933902B9
:10F31000853091F11F910895809138028130B9F0C4
:10F320008230C1F78091C80085FFFCCF84E18093D3
:10F33000CE008091C80085FFFCCF1093CE00809155
:10F34000C80085FFFCCF80E18093CE00E3CF8091A1
:10F35000C00085FFFCCF84E18093C6008091C0008F
:10F3600085FFFCCF1093C6008091C00085FFFCCFC5
:10F3700080E18093C600CECFE0913A02F0913B024B
:10F3800009951F9108950E94D9F8803241F080912B
:10F3900039028F5F80933902853029F10895809179
:10F3A0003802813089F08230C9F78091C80085FF2A
:10F3B000FCCF84E18093CE008091C80085FFFCCF14
:10F3C00080E18093CE0008958091C00085FFFCCF3E
:10F3D00084E18093C6008091C00085FFFCCF80E16E
:10F3E0008093C6000895E0913A02F0913B0209959E
:10F3F000089540E951E08823A1F02F9A28EE33E0E8
:10F40000FA013197F1F721503040D1F72F9828EECB
:10F4100033E0FA013197F1F721503040D1F78150B4
:10F4200061F708952F923F924F925F926F927F9271
:10F430008F929F92AF92BF92CF92DF92EF92FF9204
:10F440000F931F93CF93DF93000081E080933802E6
:10F4500080E18093C4001092C5001092C00086E045
:10F460008093C20088E18093C1006898709A279ABF
:10F4700081E00E94F9F9E4E1EE2E7EE1D72E67E902
:10F48000C62E53E0B52E40E1A42E9924939431E486
:10F49000832E26E5722E92E5692E80E2582E09E42D
:10F4A000402E13E5312EB0E52B2E0E94D9F8803383
:10F4B000C9F1813309F452C0803409F4C8C08134E1
:10F4C00009F4EAC0823489F1853409F4CAC0803570
:10F4D00049F1823539F1813529F1853509F4ECC0DE
:10F4E000863509F409C1843609F428C1843709F442
:10F4F000ABC1853709F473C2863709F4D9C08132AC
:10F5000009F4B7C2809139028F5F80933902853048
:10F5100061F6E0913A02F0913B0209950E94D9F818
:10F52000803339F60E94C3F9C0CF2091380293E1AD
:10F5300005C0223061F09923A9F391502130C9F719
:10F540008091C00087FFFCCF8091C600F4CF8091EE
:10F55000C80087FFFCCF8091CE00EDCF0E94D9F884
:10F56000803281F6809138028130D1F1823009F009
:10F570009CCF8091C80085FFFCCFE092CE008091A7
:10F58000C80085FFFCCF8092CE008091C80085FF27
:10F59000FCCF7092CE008091C80085FFFCCF6092B6
:10F5A000CE008091C80085FFFCCF5092CE008091A4
:10F5B000C80085FFFCCF4092CE008091C80085FF37
:10F5C000FCCF3092CE008091C80085FFFCCF209206
:10F5D000CE008091C80085FFFCCFA092CE0065CF01
:10F5E0008091C00085FFFCCFE092C6008091C000F2
:10F5F00085FFFCCF8092C6008091C00085FFFCCFC4
:10F600007092C6008091C00085FFFCCF6092C6005A
:10F610008091C00085FFFCCF5092C6008091C00051
:10F6200085FFFCCF4092C6008091C00085FFFCCFD3
:10F630003092C6008091C00085FFFCCF2092C600AA
:10F640008091C00085FFFCCFA092C6002ECF0E9403
:10F65000D9F8863808F466CF0E94D9F80E94C3F919
:10F6600024CF2091380294E0213041F0223069F01B
:10F67000992309F457CF91502130C1F78091C000F0
:10F6800087FFFCCF8091C600F3CF8091C80087FF31
:10F69000FCCF8091CE00ECCF0E94D9F8803841F1A8
:10F6A000813809F447C0823809F4CAC08839E1F0CA
:10F6B00080E00E947DF9F9CE0E94D9F880933C0247
:10F6C0000E94D9F880933D020E94C3F9EECE0E94B9
:10F6D000D9F80E94D9F8182F0E94D9F8112309F4FB
:10F6E0007EC2113009F40AC283E00E947DF9DDCEAA
:10F6F00082E00E947DF9D9CE0E94D9F8803339F397
:10F700002091380292E0213039F0223061F09923C3
:10F7100079F291502130C9F78091C00087FFFCCF6A
:10F720008091C600F4CF8091C80087FFFCCF809104
:10F73000CE00EDCF81E00E947DF9B7CE0E94D9F8CE
:10F7400080933F030E94D9F880933E038091420347
:10F750008E7F809342030E94D9F8853409F4B3C1A7
:10F7600080913E0390913F03892B89F000E010E0E7
:10F770000E94D9F8F801E25CFD4F80830F5F1F4FB4
:10F7800080913E0390913F030817190788F30E9468
:10F79000D9F8803209F0B6CE8091420380FFB2C121
:10F7A00040913C0250913D02440F551F50933D0241
:10F7B00040933C0260913E0370913F0361157105D7
:10F7C000F1F080E090E09A01280F391FFC01E25C23
:10F7D000FD4FE081F999FECF1FBA32BD21BDE0BDDA
:10F7E0000FB6F894FA9AF99A0FBE01968617970702
:10F7F00050F3460F571F50933D0240933C028091B7
:10F800003802813081F0823009F04FCE8091C800FB
:10F8100085FFFCCFE092CE008091C80085FFFCCF31
:10F82000A092CE0042CE8091C00085FFFCCFE09236
:10F83000C6008091C00085FFFCCFA092C60035CEE7
:10F8400080E10E947DF931CE0E94D9F880933F0378
:10F850000E94D9F880933E0320913C0230913D02F2
:10F8600037FD46C1809142038D7F80934203220F72
:10F87000331F30933D0220933C020E94D9F8853417
:10F8800009F430C1809142038E7F809342030E942D
:10F89000D9F8803209F009CE60913802613009F45C
:10F8A0006FC0623009F473C000913E0310913F03B2
:10F8B0000115110509F440C080914203782F717041
:10F8C000F82EF69481E0F82240913C0250913D02DE
:10F8D00020E030E013C0FF2009F060C0FA019491ED
:10F8E000613009F43BC0623009F441C0CA0101969D
:10F8F0002F5F3F4FAC0120173107D0F4772359F326
:10F90000F999FECF52BD41BDF89A90B56130F9F03A
:10F91000623061F78091C80085FFFCCF9093CE00E4
:10F92000CA0101962F5F3F4FAC012017310730F31A
:10F9300090933D0280933C02613009F4CAC062306A
:10F9400009F0B3CD8091C80085FFFCCF46CE8091F1
:10F95000C00085FFFCCF9093C600C8CF8091C00047
:10F9600085FDF9CF8091C00085FFF8CFF4CF80915D
:10F97000C80085FDD3CF8091C80085FFF8CFCECFDA
:10F980008091C00085FFFCCFE092C6008DCF8091B2
:10F99000C80085FFFCCFE092CE0086CFCA01A0E070
:10F9A000B0E080509040AF4FBF4FABBFFC0197918C
:10F9B000613061F0623009F099CF8091C80085FD17
:10F9C000ADCF8091C80085FFF8CFA8CF8091C0004F
:10F9D00085FDC1CF8091C00085FFF8CFBCCF0E94CC
:10F9E000D9F8803209F08ECD80913802813011F142
:10F9F000823009F05ACD8091C80085FFFCCFE0929B
:10FA0000CE008091C80085FFFCCFD092CE008091BF
:10FA1000C80085FFFCCFC092CE008091C80085FF52
:10FA2000FCCFB092CE008091C80085FFFCCFA092A1
:10FA3000CE003BCD8091C00085FFFCCFE092C60098
:10FA40008091C00085FFFCCFD092C6008091C0009D
:10FA500085FFFCCFC092C6008091C00085FFFCCF1F
:10FA6000B092C6008091C00085FFFCCFA092C60076
:10FA70001CCD0E94D9F8813209F017CD0E94D9F827
:10FA8000813209F012CD279A2F98109240032091CD
:10FA90003802E1E491E00EC0223009F4A4C0909352
:10FAA0004003E92FF0E0E050FE4FE0819F5FEE233E
:10FAB00009F4A0C0213081F78091C00085FFFCCF00
:10FAC000E093C600ECCF80914203816080934203B3
:10FAD00047CE8091C00085FDB7CD8091C00085FFE5
:10FAE000F8CFB2CD80914203816080934203CFCEA4
:10FAF00080914203826080934203B9CE87E90E94DD
:10FB00007DF9D3CC80913D028823880F880B892111
:10FB1000809341038BBF80913C0290913D02880FFE
:10FB2000991F90933D0280933C0280913E0380FF99
:10FB300009C080913E0390913F03019690933F034B
:10FB400080933E03F894F999FECF1127E0913C028F
:10FB5000F0913D02CEE3D2E080913E0390913F03CD
:10FB6000103091F40091570001700130D9F303E097
:10FB700000935700E8950091570001700130D9F3C8
:10FB800001E100935700E895099019900091570002
:10FB900001700130D9F301E000935700E895139507
:10FBA000103898F011270091570001700130D9F3F7
:10FBB00005E000935700E89500915700017001306F
:10FBC000D9F301E100935700E8953296029709F0C6
:10FBD000C7CF103011F00296E5CF112410CE8EE180
:10FBE0000E947DF962CC8091C80085FFFCCFE09334
:10FBF000CE0055CF7AE0B72E6DE0A62E5AE3952EB3
:10FC000040E2842E3DE3732E90E3692E81E3582E6B
:10FC1000213009F442C0223009F45FC00E94D9F8B3
:10FC2000982F20913802213089F1223009F44EC0FA
:10FC3000943709F46BC0923709F405C1973709F47A
:10FC40007BC0953799F0923609F4BDC09A3601F71A
:10FC5000E0913A02F0913B02099520913802D8CF09
:10FC60008091C00085FFFCCF9093C6000E94D9F818
:10FC7000982F80913802813099F38230B9F78091C2
:10FC8000C80085FFFCCF9093CE00F0CF8091C000DC
:10FC900085FFFCCF9093C600CBCF8091C00085FF3D
:10FCA000FCCFB092C6008091C00085FFFCCFA0922F
:10FCB000C6008091C00085FFFCCF9092C600809165
:10FCC000C00085FFFCCF8092C600A8CF8091C800FD
:10FCD00085FFFCCF9093CE00ABCF8091C80085FF0D
:10FCE000FCCFB092CE008091C80085FFFCCFA092DF
:10FCF000CE008091C80085FFFCCF9092CE0080910D
:10FD0000C80085FFFCCF8092CE0088CF1F9947C0E6
:10FD10002F9A213051F0223009F07ACF8091C8001B
:10FD200085FFFCCF6092CE0073CF8091C00085FF2D
:10FD3000FCCF6092C6006CCF0E94D9F8982F8091BA
:10FD400038028130F1F0823009F4ABC00E9455F9DD
:10FD5000082F0E9455F9182F0E94D9F8982F8091EA
:10FD600038028130A9F0823009F4A2C00E9455F90E
:10FD7000D02ECC24F601E10FF11D808320913802B2
:10FD800047CF8091C00085FFFCCF9093C600DECFA7
:10FD90008091C00085FFFCCF9093C600E7CF2F98DD
:10FDA000213051F0223009F033CF8091C80085FF17
:10FDB000FCCF5092CE002CCF8091C00085FFFCCFAD
:10FDC0005092C60025CF213041F1223081F080E8E9
:10FDD00085BF109274001092750080E091E1FC01E3
:10FDE000819180E091E13097D1F3CF01F8CF8091FC
:10FDF000C80085FFFCCF82E68093CE008091C800CA
:10FE000085FFFCCF85E78093CE008091C80085FFF9
:10FE1000FCCF83E78093CE00DACF8091C00085FFCE
:10FE2000FCCF82E68093C6008091C00085FFFCCFA6
:10FE300085E78093C6008091C00085FFFCCF83E7F3
:10FE40008093C600C4CF0E94D9F8982F80913802C1
:10FE50008130C9F08230D1F10E9455F9182F0E94EB
:10FE600055F9982F809138028130A1F0823039F114
:10FE7000F12EEE24F701E90FF11D80810E9494F824
:10FE800020913802C5CE8091C00085FFFCCF9093B1
:10FE9000C600E2CF8091C00085FFFCCF7092C60003
:10FEA000E7CF8091C80085FFFCCF9093CE004ECF66
:10FEB0008091C80085FFFCCF9093CE0057CF8091F2
:10FEC000C80085FFFCCF7092CE00D2CF8091C800D1
:10FED00085FFFCCF9093CE00BFCFF894FFCF415465
:10FEE0006D656761424F4F54202F204172647569E0
:10FEF0006E6F204D656761202D20284329204172B7
:10FF00006475696E6F204C4C43202D203039303998
:06FF100033300A0D0080F1
:00000001FF
