:100000000C9477010C94A8010C94A8010C94A801FD
:100010000C94A8010C94A8010C94A8010C94A801BC
:100020000C94A8010C94A8010C94A8010C94A801AC
:100030000C94A8010C94A8010C94A8010C94A8019C
:100040000C94A8010C94A8010C94A8010C94A8018C
:100050000C94A8010C94A8010C94A8010C94D00A4B
:100060000C94A8010C94440B0C941A0B0C94A8014A
:100070000C94A8010C94A8010C94A8010C94A8015C
:100080000C94A8010C94A8010C94A8010C94A8014C
:100090000C94A8010C94A8010C94A8010C947A0B60
:1000A0000C94A8010C94A8010C94A8010C94A8012C
:1000B0000C94A8010C94A8010C94A8010C94A8011C
:1000C0000C94A8010C94A8010C94A8010C94A8010C
:1000D0000C94A8010C94A8010C94A8010C94A801FC
:1000E0000C94A8010C94FA0F0C94E0110C94741564
:1000F0000C94FE0F0C940D020C94FF010C94C90497
:100100000C94E3010C94CF100C9427030C94290356
:100110000C94C8040C94D8040C94C2160C940902D4
:100120000C94F80F0C94AA120C94D6010C94DC10C9
:100130000C941E110C9411040C944E050C941A147A
:100140000C9408020C94EB040C94E30C0C946B10CC
:100150000C94ED010C9479030C94DD010C94F60FD2
:100160000C94E7010C94F1010C94BF030C94EE1075
:100170000C9403100C9428030C94DB140C94CE0103
:100180000C9400100C9465030C9403020C948D15D0
:100190000C94FC0F0C9456030C94630F0C9487037F
:1001A0000C94F2040C94C8010C94F5010C943816CC
:1001B0000C941F050C9406100C94D2010C9462133D
:1001C0000C94DA010C94F40F0C94FB010000210054
:1001D000240027002A002D00300033000101000018
:1001E000040107010A0100002200250028002B005D
:1001F0002E003100340002010000050108010B014E
:10020000000020002300260029002C002F003200CF
:1002100000010000030106010901050505050705A8
:1002200008080808020202020A0A08080404040472
:10023000010101010101010103030303030303039E
:10024000040707070C0C0C0C0C0C0C0C020202022D
:1002500006060606060606060B0B0B0B0B0B0B0B16
:1002600001021020200808102040102040800201C8
:1002700002010804020101020408102040808040AD
:1002800020100804020180040201804020100804AC
:10029000020108040201010204081020408001024A
:1002A00004081020408000000A0B02090C0D0E0803
:1002B000070304010000000000000000000000002F
:1002C000000000000000000000000000000000002E
:1002D00000001211100000000000000000000000EB
:1002E000000000000000000000000000E30C1124EA
:1002F0001FBECFEFD1E2DEBFCDBF00E00CBF1BE0E1
:10030000A0E0B2E0EAE3F1E400E00BBF02C0079036
:100310000D92AA36B107D9F72DE0AAE6BBE001C0DD
:100320001D92A035B207E1F711E0C7E7D1E000E088
:1003300006C021970109802FFE010E94891FC63740
:10034000D10780E00807A9F70E941C0D0C949B20A0
:100350000C9400008150823108F05AC0E82FF0E080
:100360008827EA54FE4F8F4F0C94891FD601DA017B
:10037000C801CE01D2010802DD01E301E701ED0170
:10038000F101F501FB01FF010802030209020D0260
:10039000809180008F778093800008958091800005
:1003A0008F7DF9CF80918000877FF5CF84B58F77DF
:1003B00084BD089584B58F7DFBCF8091B0008F7789
:1003C0008093B00008958091B0008F7DF9CF809127
:1003D00090008F77809390000895809190008F7D9A
:1003E000F9CF80919000877FF5CF8091A0008F7723
:1003F0008093A00008958091A0008F7DF9CF809117
:10040000A000877FF5CF809120018F778093200116
:100410000895809120018F7DF9CF80912001877F01
:10042000F5CFCF93DF93282F30E0F901EA55FD4F48
:100430008491F901E05AFD4FD491F901E65EFD4F38
:10044000C491CC23A1F081110E94AA01EC2FF0E00D
:10045000EE0FFF1FE050FE4FA591B491EC91ED23FC
:1004600081E090E009F480E0DF91CF91089580E091
:1004700090E0FACF1F93CF93DF93282F30E0F9015C
:10048000EA55FD4F8491F901E05AFD4FD491F901ED
:10049000E65EFD4FC491CC23A9F0162F81110E9476
:1004A000AA01EC2FF0E0EE0FFF1FEA51FE4FA591DD
:1004B000B4918FB7F894EC91111108C0D095DE2358
:1004C000DC938FBFDF91CF911F910895DE2BF8CF82
:1004D000CF93DF9390E0FC01E05AFD4F2491865EBC
:1004E0009D4FFC0184918823C9F090E0880F991FEB
:1004F000FC01E453FE4FA591B491FC01EA51FE4F7B
:10050000C591D49161110DC09FB7F8948C9120953D
:1005100082238C938881282328839FBFDF91CF91EA
:100520000895623051F49FB7F8943C91822F8095E2
:1005300083238C93E8812E2BEFCF8FB7F894EC9127
:100540002E2B2C938FBFEACF863308F08653209151
:100550007B00982F9870277F922B90937B00877059
:10056000806480937C0080917A00806480937A001C
:1005700080917A0086FDFCCF80917800909179007F
:1005800008953FB7F89480919F0C9091A00CA09192
:10059000A10CB091A20C26B5A89B05C02F3F19F065
:1005A0000196A11DB11D3FBFBA2FA92F982F8827F3
:1005B000BC01CD01620F711D811D911D42E0660FCE
:1005C000771F881F991F4A95D1F708958F929F92A0
:1005D000AF92BF92CF92DF92EF92FF920E94C10240
:1005E0004B015C0184E6C82ED12CE12CF12C0E9439
:1005F000C102681979098A099B09683E734081051F
:100600009105A8F321E0C21AD108E108F10888EEAB
:10061000880E83E0981EA11CB11CC114D104E10412
:10062000F10429F7FF90EF90DF90CF90BF90AF904B
:100630009F908F9008952FB7F89460919B0C7091C4
:100640009C0C80919D0C90919E0C2FBF0895089555
:100650000895AF92BF92CF92DF92EF92FF920F93E5
:100660001F93CF93DF936C017B018B01040F151F48
:10067000EB015E01AE18BF08C017D10759F06991B0
:10068000D601ED91FC910190F081E02DC601199504
:10069000892B79F7C501DF91CF911F910F91FF90C1
:1006A000EF90DF90CF90BF90AF900895FC01538DF5
:1006B000448D252F30E0842F90E0821B930B54173C
:1006C00010F0CF96089501970895FC01918D828DC9
:1006D000981761F0A28DAE0FBF2FB11D5D968C9162
:1006E000928D9F5F9F73928F90E008958FEF9FEFA1
:1006F0000895FC01918D828D981731F0828DE80F5D
:10070000F11D858D90E008958FEF9FEF0895FC0116
:10071000918D228D892F90E0805C9F4F821B9109E3
:100720008F739927089583EA9CE00E94870321E054
:10073000892B09F420E0822F0895FC01A48DA80FD5
:10074000B92FB11DA35ABF4F2C91848D90E0019613
:100750008F739927848FA689B7892C93A089B18933
:100760008C91837080648C93938D848D981306C0D4
:100770000288F389E02D80818F7D80830895EF9238
:10078000FF920F931F93CF93DF93EC0181E0888F4B
:100790009B8D8C8D98131AC0E889F989808185FF1B
:1007A00015C09FB7F894EE89FF896083E889F989BD
:1007B00080818370806480839FBF81E090E0DF91BF
:1007C000CF911F910F91FF90EF900895F62E0B8D12
:1007D00010E00F5F1F4F0F731127E02E8C8D8E11CD
:1007E0000CC00FB607FCFACFE889F989808185FF34
:1007F000F5CFCE010E949D03F1CFEB8DEC0FFD2FC5
:10080000F11DE35AFF4FF0829FB7F8940B8FEA89EE
:10081000FB8980818062CFCF682F83EA9CE00C94B3
:10082000BF03CF93DF93EC01888D8823B9F0AA89A9
:10083000BB89E889F9898C9185FD03C0808186FD9B
:100840000DC00FB607FCF7CF8C9185FFF2CF8081EA
:1008500085FFEDCFCE010E949D03E9CFDF91CF91BF
:10086000089580E090E0892B29F00E949303811184
:100870000E94000080E090E0892B49F080E090E049
:10088000892B29F00E94000081110E94000080E065
:1008900090E0892B49F080E090E0892B29F00E94BC
:1008A000000081110E94000080E090E0892B49F057
:1008B00080E090E0892B29F00E94000081110C94C7
:1008C000000008952091BF0B260F3327331F2132DC
:1008D0003105ECF420910E0CFC0190E080E0243016
:1008E00069F082E00895A091BF0B2191AC014156BF
:1008F000544FA40FB52FB11D2C930196861798F372
:100900008091BF0B680F6093BF0B80E0089581E07A
:10091000089510920E0C81E080930D0C1092E80B5C
:1009200061E084E10E943A0261E085E10E943A02BE
:10093000E9EBF0E080818E7F808380818D7F8083F2
:1009400088E48093B80085E48093BC000895CF9339
:10095000DF9391E090939E0B8823B9F0C091B8008B
:10096000D091BA008091BC008A7B8093BC0060E08B
:1009700084E10E943A0260E085E10E943A020E940E
:100980008904D093BA00C093B800DF91CF91089545
:100990000895E091E70B8091E60BE81730F4F0E062
:1009A000E258F44F808190E008958FEF9FEF089513
:1009B0009091E70B8091E60B2FEF3FEF981748F4EB
:1009C000E92FF0E0E258F44F208130E09F5F9093F0
:1009D000E70BC90108958091E60B9091E70B891B05
:1009E000990B0895CF92DF92EF92FF920F931F938E
:1009F000CF93DF937C01CB018A012091140C222339
:100A000089F0EB016B01C40ED51ECC15DD0569F034
:100A10006991D701ED91FC910190F081E02DC70122
:100A20001995F3CF642F0E946204C801DF91CF9122
:100A30001F910F91FF90EF90DF90CF900895CF938B
:100A4000DF931F92CDB7DEB769832091140C222368
:100A5000F9F02091370C203258F021E030E0FC0111
:100A60003383228390E080E00F90DF91CF9108954F
:100A70008091150CE82FF0E0EA5EF34F99819083A6
:100A80008F5F8093150C8093370C81E090E0ECCF62
:100A900061E0CE0101960E946204F7CF90E080E011
:100AA00008951092380C1092390C10923A0C109252
:100AB0003B0CEFE3FCE011928CE0EF38F807D9F73C
:100AC00008950F931F93CF93DF93082FC8E0D0E0D2
:100AD00010E8802F812359F081E30E940C041695C1
:100AE0002197B9F7DF91CF911F910F91089580E37E
:100AF000F4CF90E0FC01E05AFD4F2491FC01E65E4A
:100B0000FD4FE491F0E0EE0FFF1FE050FE4FA59186
:100B1000B491EC91E22381E090E011F490E080E068
:100B200008958F709927FC01EE59FD4F80810C9438
:100B30000C04FC0101900020E9F73197AF01481B3C
:100B4000590BBC0183EA9CE00C9429038F929F927D
:100B5000AF92BF920F931F93CF93DF93CDB7DEB7C2
:100B6000A1970FB6F894DEBF0FBECDBF19A24230D9
:100B700008F44AE08E010F5D1F4F842E912CB12C9A
:100B8000A12CA50194010E94481FE62FB901CA01BA
:100B9000EA30F4F4E05DD801EE938D01232B242B91
:100BA000252B79F790E080E0109719F0CD010E9495
:100BB0009905A1960FB6F894DEBF0FBECDBFDF91A9
:100BC000CF911F910F91BF90AF909F908F900895FC
:100BD000E95CE1CF0C94A605AB01682F70E090E0D2
:100BE00080E00C94EA050C94990583E792E00C945C
:100BF0009905CF93DF93FC01448155816081718118
:100C000083EA9CE00E942903EC010E94F5058C0F09
:100C10009D1FDF91CF9108950E94F50586E792E030
:100C20000E94F3050E941B034AE050E00E94EA057F
:100C30008CE792E00E94F3050C94F5050E940C06E7
:100C40000E94F5058FE792E00E94F30583EA9CE09D
:100C50000E9465030196D1F30C940C06CF93DF93A9
:100C60000E949905EC010E94F5058C0F9D1FDF91F4
:100C7000CF910895CF92DF92EF92FF92CF93DF93BF
:100C800097FF19C06B017C018DE20E940C04EC01FE
:100C900066277727CB016C197D098E099F094AE0E9
:100CA0000E94A6058C0F9D1FDF91CF91FF90EF90C2
:100CB000DF90CF9008954AE0DF91CF91FF90EF90C1
:100CC000DF90CF900C94A605BC01990F880B990B6F
:100CD0000C943A06CF93DF930E946406EC010E94C5
:100CE000F5058C0F9D1FDF91CF9108954F925F9274
:100CF0006F927F928F929F92AF92BF92CF92DF922C
:100D0000EF92FF920F931F93CF936B017C01742E90
:100D1000AC019B010E942F1F882399F084E992E087
:100D2000CF911F910F91FF90EF90DF90CF90BF90E8
:100D3000AF909F908F907F906F905F904F900C94AA
:100D4000990546015701E894B7F82FEF3FEF4FE7B9
:100D50005FE7C501B4010E942F1F81110DC02FEF65
:100D60003FEF4FE75FE7C501B4010E94F11C181681
:100D70001CF488E992E0D4CF2FEF3FEF4FE75FE418
:100D8000C701B6010E942A1F18161CF48CE992E0D4
:100D9000C7CF2FEF3FEF4FE75FECC701B6010E94CF
:100DA000F11C87FDF3CF20E030E0A901C701B601B7
:100DB0000E94F11C10E000E087FF08C08DE20E9455
:100DC0000C048C01F7FAF094F7F8F094C0E060E0BE
:100DD00070E080E09FE37C1641F020E030E040E2EC
:100DE00051E40E94821ECF5FF6CFA70196010E94B8
:100DF000161E2B013C010E94FB1E4B015C014AE0C8
:100E00000E94A6057C01E00EF11ECC23B1F1C501C4
:100E1000B4010E94F61C9B01AC01C301B2010E9407
:100E2000151E4B015C018EE20E940C04E80EF91EB7
:100E3000C15018F120E030E040E251E4C501B401B6
:100E40000E94571D2B013C010E94FB1E4B01B12C3F
:100E5000A12C4AE0C501B4010E94A605E80EF91EC6
:100E6000C501B4010E94F61C9B01AC01C301B20193
:100E70000E94151E4B015C01DBCFC701CF911F9172
:100E80000F91FF90EF90DF90CF90BF90AF909F9029
:100E90008F907F906F905F904F9008951F93CF93A6
:100EA000DF93182FD62FC8E0642F812F0E943A02BB
:100EB00061E08D2F0E943A0260E08D2F0E943A027D
:100EC000C15040E089F7DF91CF911F9108950F93B2
:100ED0001F93CF93DF93EC0188819981009759F09C
:100EE0002A813B812617370730F081E0DF91CF91CF
:100EF0001F910F9108958B016F5F7F4F0E94A51F77
:100F0000009759F0998388831B830A832C813D8144
:100F1000232B59F7FC011082E8CF80E0E7CFEF9256
:100F2000FF920F931F93CF93DF936115710541F4E7
:100F300080E0DF91CF911F910F91FF90EF90089586
:100F400041155105B1F07B01EC010C811D81040FAD
:100F5000151FB8010E946707882351F32881398142
:100F60008C819D81B701820F931F0E9494201D8365
:100F70000C8381E0DECFCF93DF93EC0188819981F0
:100F8000009711F00E94331C198218821D821C8266
:100F90001B821A82DF91CF910895EF92FF920F93F7
:100FA0001F93CF93DF93EC017B01198218821B8280
:100FB0001A821D821C82FB0101900020E9F7319703
:100FC0008F01061B170BB8010E946707811109C02A
:100FD000CE01DF91CF911F910F91FF90EF900C9474
:100FE000BB071D830C83B70188819981DF91CF9165
:100FF0001F910F91FF90EF900C949420CF92DF926D
:10100000EF92FF920F931F93CF93DF93CDB7DEB78D
:1010100062970FB6F894DEBF0FBECDBF8C01CB0137
:10102000F8011182108213821282158214824AE022
:101030009E012F5F3F4F6901B9010E94BC1CF60160
:1010400001900020E9F731977F01EC18FD08B70106
:10105000C8010E946707811112C0C8010E94BB0726
:1010600062960FB6F894DEBF0FBECDBFDF91CF9171
:101070001F910F91FF90EF90DF90CF900895F801AE
:10108000F582E482B601808191810E949420E8CFAC
:10109000CF93DF93EC01FB0101900020E9F731973A
:1010A000AF01461B570B0E948F07811103C0CE0171
:1010B0000E94BB07CE01DF91CF910895CF93DF93BC
:1010C000EC01FB0144815581608171810E948F0791
:1010D000811103C0CE010E94BB07CE01DF91CF91E9
:1010E0000895FC0180819181009711F00C94331CCC
:1010F00008950F931F93CF93DF93CDB7DEB7689713
:101100000FB6F894DEBF0FBECDBF8C010E94F5056F
:1011100080EA92E00E942E068DEB92E00E942E065D
:101120008DED92E00E942E068CEF92E00E942E063A
:1011300085E393E00E942E068DE593E00E942E0643
:1011400085E893E00E942E068DEA93E00E942E0629
:101150008FED93E00E942E0684EF93E00E942E060E
:101160008AE094E00E942E0684E294E00E942E061B
:101170008AE594E00E942E068AE794E00E942E06FB
:101180008AE994E00E942E066EE170E0CE0143965B
:101190000E94FE0760E270E0CE010D960E94FE07FD
:1011A00066E170E0CE0107960E94FE076AEB74E0EC
:1011B000CE0101960E94CD07BE01695F7F4FCE012F
:1011C00001960E945E0863EE74E00E944808BE012A
:1011D000635F7F4F0E945E086CEE74E00E944808D7
:1011E000BE016D5E7F4F0E945E080E94F905CE0130
:1011F00001960E947108CE0107960E947108CE01E7
:101200000D960E947108CE0143960E9471086EE10E
:1012100070E0CE0143960E94FE0764E270E0CE01CA
:101220000D960E94FE0766E170E0CE0107960E94CF
:10123000FE0763EF74E0CE0101960E94CD07BE0168
:10124000695F7F4FCE0101960E945E0863EE74E0F5
:101250000E944808BE01635F7F4F0E945E086CEEEB
:1012600074E00E944808BE016D5E7F4F0E945E08D8
:101270000E94F905CE0101960E947108CE010796E1
:101280000E947108CE010D960E947108CE0143960E
:101290000E94710866E370E0CE0107960E94FE0787
:1012A0006CE175E0CE0101960E94CD07BE01695F39
:1012B0007F4FCE0101960E945E0869E575E00E94AD
:1012C00048080E94F905CE0101960E947108CE01DE
:1012D00007960E9471080115110511F00E941E0663
:1012E00087E695E00E942E068FE995E00E942E0683
:1012F00080ED95E00E942E068EE196E00E942E067B
:1013000081E496E00E942E068CE596E00E942E066F
:101310008DE796E00E942E0689E996E00E942E064F
:1013200080ED96E00E942E0685E197E00E942E0651
:1013300082E497E00E942E0683E797E00E942E0643
:1013400085EA97E00E942E068EED97E00E942E0619
:101350008FEF97E00E942E060E94F50581E498E049
:101360000E942E06012B11F00E941E0668960FB6F1
:10137000F894DEBF0FBECDBFDF91CF911F910F91CB
:10138000089585ED8093BC008091100C9091110C14
:10139000A091120CB091130C0796A11DB11D23E072
:1013A000B695A795979587952A95D1F72091BC007A
:1013B00024FD03C010920E0C08954091100C509122
:1013C000110C6091120C7091130C452B462B472B7E
:1013D00069F30097A105B10541F02AE22A95F1F7DA
:1013E00000C00197A109B109E1CF80910F0C0C94C5
:1013F000A7040F931F93CF93DF931F921F92CDB734
:10140000DEB781E898E00E942E068EE998E00E94FF
:10141000F30520914C0D30914D0DCE010196211513
:10142000310509F0BAC080559D409A83898389812E
:101430009A810E946A0684E090E00E94971B8C01CA
:1014400090937B0B80937A0B0E94331C8DB79EB7D1
:1014500090937D0B80937C0B801B910B9093790B69
:101460008093780B8BEA98E00E94F3058091780BCB
:101470009091790B0E946A062FEF31E2C9018050EA
:1014800092409093770B8093760B4AE65BE0405056
:1014900052405093750B4093740B60E57DE06A56A3
:1014A0007B407093730B6093720B00914C0D109105
:1014B0004D0DD801A055BD40B093710BA093700B9A
:1014C000EDB7FEB72E1B3F0B30936F0B20936E0BC7
:1014D000EDB7FEB7E01BF10BF0936D0BE0936C0BD7
:1014E000821B930B8A1B9B0B861B970B841B950BF4
:1014F00090936B0B80936A0B87EB98E00E942E060B
:101500008EED98E00E94F3058091760B9091770B19
:101510000E946A068AEE98E00E94F3058091740B9F
:101520009091750B0E946A0686EF98E00E94F30581
:101530008091720B9091730B0E946A0682E099E091
:101540000E94F3058091700B9091710B0E946A06C6
:101550008EE099E00E94F30580916E0B90916F0BE5
:101560000E946A068AE199E00E94F30580916C0B63
:1015700090916D0B0E946A0686E299E00E94F30545
:1015800080916A0B90916B0B0E946A060F900F90EE
:10159000DF91CF911F910F910895821B930B45CF3F
:1015A0001F920F920FB60F9211242F933F938F9398
:1015B0009F93AF93BF9380919B0C90919C0CA091B3
:1015C0009D0CB0919E0C30919A0C23E0230F2D3787
:1015D00058F50196A11DB11D20939A0C80939B0C88
:1015E00090939C0CA0939D0CB0939E0C80919F0CAB
:1015F0009091A00CA091A10CB091A20C0196A11DFC
:10160000B11D80939F0C9093A00CA093A10CB0935C
:10161000A20CBF91AF919F918F913F912F910F900D
:101620000FBE0F901F90189526E8230F0296A11D5C
:10163000B11DD2CF1F920F920FB60F9211240BB68D
:101640000F922F933F934F935F936F937F938F935B
:101650009F93AF93BF93EF93FF9383EA9CE00E9425
:101660009D03FF91EF91BF91AF919F918F917F91DA
:101670006F915F914F913F912F910F900BBE0F9003
:101680000FBE0F901F9018951F920F920FB60F92DA
:1016900011240BB60F922F938F939F93EF93FF9389
:1016A000E091B30CF091B40C8081E091B90CF09111
:1016B000BA0C82FD1DC090818091BC0C8F5F8F732E
:1016C0002091BD0C821741F0E091BC0CF0E0ED558B
:1016D000F34F958F8093BC0CFF91EF919F918F9169
:1016E0002F910F900BBE0F900FBE0F901F9018956B
:1016F0008081F2CF1F920F920FB60F9211240BB67A
:101700000F922F933F934F935F936F937F938F939A
:101710009F93AF93BF93EF93FF938091B900887F1E
:10172000803609F44DC008F040C0883209F4A9C0E1
:1017300028F5803109F49DC0C8F4882309F4FBC062
:10174000883009F496C0FF91EF91BF91AF919F91BE
:101750008F917F916F915F914F913F912F910F905A
:101760000BBE0F900FBE0F901F901895883109F493
:1017700088C0803241F780930C0C14C0803409F487
:101780009DC040F48033B9F38833E9F680930C0CA4
:1017900085ECB0C0803509F485C0883509F496C061
:1017A000883489F60E94C109CECF883909F48CC0EB
:1017B00038F5883729F050F4883611F0803719F65B
:1017C00083E080930E0C1092E10B57C0883809F427
:1017D0007BC0803919F0803809F0B5CF8091E10BDA
:1017E000803208F071C0E091E10B81E08E0F8093B0
:1017F000E10B8091BB00F0E0EF53F44F80833DC0DC
:10180000803B39F0E0F4803A09F479C0883A09F075
:101810009ACF84E080930E0C1092C00B1092BF0BF5
:10182000E091E40BF091E50B19958091BF0B8111CC
:101830000FC081E08093BF0B10929F0B09C0803CCA
:1018400009F4A6CF883C09F4A3CF883B09F07BCFED
:10185000E091C00B81E08E0F8093C00BF0E0E15669
:10186000F44F80818093BB009091C00B8091BF0B9F
:1018700029C08091E90B8093BB0085EC8093BC006C
:1018800062CF90910B0C80910A0C981758F5E0915B
:101890000B0C81E08E0F80930B0CF0E0E651F44FBF
:1018A0008081E9CFE0910B0C81E08E0F80930B0CCF
:1018B0008091BB00F0E0E651F44F808390910B0CD7
:1018C00080910A0C9817C8F285E8D8CFE0910B0CEC
:1018D00081E08E0F80930B0C8091BB00F0E0E6510D
:1018E000F44F808380910D0C81115CCF81E0809357
:1018F000E80B84EA8093BC0010920E0C24CF85EC98
:101900008093BC0010920E0C8091E10B803230F479
:10191000E091E10BF0E0EF53F44F10826091E10BA6
:1019200070E0E091E20BF091E30B81EC9BE0199504
:101930001092E10B08CF10920C0C34CFCF92DF92B3
:10194000EF92FF920F931F93E82FF92F05C00150DC
:1019500011092109310961F1908196239417B9F396
:1019600005C0015011092109310911F19081962317
:101970009413F7CFC12CD12CE12CF12C0AC08FEF9E
:10198000C81AD80AE80AF80A0C151D052E053F05E5
:1019900079F080818623841791F36C2D7D2D8E2D17
:1019A0009F2D1F910F91FF90EF90DF90CF900895A2
:1019B00060E070E080E090E01F910F91FF90EF9069
:1019C000DF90CF900895E3EAFCE01382128288EE64
:1019D00093E0A0E0B0E084839583A683B78322E4FC
:1019E00032E03183208325EC30E03587248724ECF6
:1019F00030E03787268720EC30E0318B208B21ECDC
:101A000030E0338B228B22EC30E0358B248B26ECBC
:101A100030E0378B268B118E128E138E148EE0E4FD
:101A2000FDE01382128284839583A683B78384E5C5
:101A300092E0918380830895CF93DF9300D01F922B
:101A4000CDB7DEB7789484B5826084BD84B58160FB
:101A500084BD85B5826085BD85B5816085BD809179
:101A60006E00816080936E001092810080918100F1
:101A700082608093810080918100816080938100E9
:101A8000809180008160809380008091B1008460AB
:101A90008093B1008091B00081608093B00080910C
:101AA0009100826080939100809191008160809389
:101AB0009100809190008160809390008091A100BE
:101AC00082608093A1008091A10081608093A10039
:101AD0008091A00081608093A000809121018260AC
:101AE0008093210180912101816080932101809167
:101AF000200181608093200180917A00846080932E
:101B00007A0080917A00826080937A0080917A00D6
:101B1000816080937A0080917A00806880937A0057
:101B20001092C1001092E70B1092E60B1092150C68
:101B30001092370C0E94890487E293E09093E50BA2
:101B40008093E40B88E293E09093E30B8093E20BA5
:101B500080917A00846080937A0080917A008D7FF2
:101B600080937A0080917A008E7F80937A00E09152
:101B7000B30CF091B40C82E08083E091AF0CF09153
:101B8000B00C1082E091B10CF091B20C80E1808336
:101B90001092BB0CE091B70CF091B80C86E08083FA
:101BA000E091B50CF091B60C808180618083E0916A
:101BB000B50CF091B60C808188608083E091B50C03
:101BC000F091B60C808180688083E091B50CF09133
:101BD000B60C80818F7D80830E94510510E000E06B
:101BE0000E94F50582E399E00E94F305C8010E9476
:101BF000640687E399E00E94F30589E399E00E9477
:101C0000F305F801E05AFD4F84910E94610581E5DA
:101C100099E00E94F3059801265E3D4F7901F90194
:101C2000849190E0805C9F4F0E94640687E599E074
:101C30000E94F3058FE499E00E94F305F701849177
:101C40000E9461050F5F1F4F0633110509F0C8CFD1
:101C50000E94F5050E94F90990E080E00E94790851
:101C600061E088E10E94680261E086E10E9468020A
:101C700061E08EE10E94680261E080E20E946802F9
:101C800061E082E20E94680261E084E20E946802F0
:101C9000C090960CD090970CE090980CF090990C16
:101CA000C092920CD092930CE092940CF092950C0E
:101CB0000E941B036093960C7093970C8093980C72
:101CC0009093990C8B019C010C191D092E093F0959
:101CD000013412442F40310540F06093920C709310
:101CE000930C8093940C9093950C8091910C81307F
:101CF000F1F408E312E0B2E0EB2EB2E0FB2EDE2CB2
:101D0000D094F70161917F0160FD0EC063FF0CC0AC
:101D100067FF0AC0319780E28627808360956072F2
:101D20008D2D8E0D0E943A020E151F0551F78091E0
:101D30000002813009F066C08BE50E940C04E0903F
:101D40000102F12C10E000E0F2E0EF16F10449F599
:101D5000802F0E94A40297FD03966C01D594C7942E
:101D6000D594C794FC01A6E0F595E795AA95E1F70F
:101D7000EF70FF27EE59FD4F80810E940C04F601A1
:101D8000EF70FF27EE59FD4F80810E940C048FE811
:101D90009AE00E94F3050F5F1F4F00311105A1F675
:101DA0002EC023E0E216F10459F4802F0E94A40211
:101DB00064E470E00E94341FCB010E949105E7CFDC
:101DC00031E0E316F10439F7802F0E94A402BC0130
:101DD000990F880B990B0E94F81C20E030E040E836
:101DE0005AE30E94571D20E030E040EA50E40E9490
:101DF000571D42E00E9476060F30110541F68DE531
:101E00000E940C0480913E0C813059F51C828C811B
:101E10000E9411024C814F5F4C834633C1F78BE522
:101E20000E940C040091010210E01C820230110596
:101E300021F48C810E94110206C00330110531F497
:101E40008C810E9479050E94640603C0013011054F
:101E500081F35C815F5F5C83563341F78DE50E94BF
:101E60000C0480913D0C813009F030C080913C0C15
:101E70008C830E940C04EC81E156EA3108F0DEC14B
:101E80000E2E000CFF0B8827E75BF04F8F4F0C9452
:101E9000891F630FF40FF60FF80FFA0FFC0FFE0FF8
:101EA00000101E110310DC106B101E111E111E11EC
:101EB0001E111E111E111E111E111E111E111E11AA
:101EC0000610EE10CF1080B10E94610583EA9CE0FD
:101ED0000E948703892B41F083EA9CE00E946503FE
:101EE0009093900C80938F0C80918F0C9091900C1C
:101EF00097FD31C08F32910551F020913F0C2F3268
:101F000011F00C94FD188D30910509F4BAC1C09000
:101F1000380CD090390CE0903A0CF0903B0CC11486
:101F2000D104E104F10411F40C948F1B8830910565
:101F300009F089C191E0C91AD108E108F108C092FD
:101F4000380CD092390CE0923A0CF0923B0CF6012E
:101F5000E15CF34F10828FEF9FEF9093900C809392
:101F60008F0C80910002813051F080913E0C8130C5
:101F700031F080913D0C813011F00C948B1B8091DD
:101F8000380C9091390CA0913A0CB0913B0C892BF4
:101F90008A2B8B2B11F40C94681B84E69BE00E9427
:101FA000F3050FE31CE080E090E0DC016C017D01B3
:101FB0003FEFC31AD30AE30AF30A4091380C509159
:101FC000390C60913A0C70913B0C84179507A60769
:101FD000B70710F00C94581BF80181918F010E94F3
:101FE0000C04D701C601E2CF83B16ECF86B16CCFAE
:101FF00089B16ACF8CB168CF8FB166CF82B364CF1D
:102000008091000161CF809103015ECF8091010238
:10201000813009F063C081E60E940C0480B10E9407
:1020200061058CE70E940C0482E60E940C0483B1D7
:102030000E9461058CE70E940C0483E60E940C0458
:1020400086B10E9461058CE70E940C0484E60E9420
:102050000C0489B10E9461058CE70E940C0485E69E
:102060000E940C048CB10E9461058CE70E940C0454
:1020700086E60E940C048FB10E9461058CE70E94E5
:102080000C0487E60E940C0482B30E9461058CE771
:102090000E940C0488E60E940C04809100010E94BA
:1020A00061058CE70E940C048AE60E940C04809172
:1020B00003010E9461058CE70E940C048BE60E94DC
:1020C0000C04809106010E9461058CE70E940C04BB
:1020D0008CE60E940C0480910901F6CE8DE699E011
:1020E0000E94F30581E60E940C0480B160E170E07B
:1020F0000E94EC0582E60E940C0483B160E170E06E
:102100000E94EC0583E60E940C0486B160E170E059
:102110000E94EC0584E60E940C0489B160E170E045
:102120000E94EC0585E60E940C048CB160E170E031
:102130000E94EC0586E60E940C048FB160E170E01D
:102140000E94EC0587E60E940C0482B360E170E017
:102150000E94EC0588E60E940C048091000160E179
:1021600070E00E94EC058AE60E940C048091030155
:1021700060E170E00E94EC058BE60E940C04809107
:10218000060160E170E00E94EC058CE60E940C0400
:102190008091090160E170E00E94EC0597CE80918A
:1021A0000102813061F486E60E940C048FB10E9426
:1021B00061058BE60E940C048091060185CE8DE6B8
:1021C00099E00E94F3058FB160E170E00E94EC0598
:1021D0008CE70E940C0480910601DCCF8091010203
:1021E0008130E9F48FE699E00E94F3058DB10E94F9
:1021F000610584E799E00E94F305809101010E9446
:10220000610589E799E00E94F3058EB10E9461059E
:1022100080E899E00E94F3058091020155CE8DE699
:1022200099E00E94F3058DB160E170E00E94EC0539
:102230008CE70E940C0480910101ACCF87E899E003
:102240000E942E0643CE009709F485CEE0E5CE1617
:10225000D104E104F10408F07ECEF601E15CF34F15
:1022600080830E940C04FFEFCF1ADF0AEF0AFF0AF7
:10227000C092380CD092390CE0923A0CF0923B0CA0
:102280006ACE8091380C9091390CA0913A0CB091A3
:102290003B0C0196A11DB11D8093380C9093390C15
:1022A000A0933A0CB0933B0C815C934FFC011082DD
:1022B00080913F0C8F3209F02BC49091400C892FF4
:1022C0008F7D81548A3108F4A92E9091410C892F79
:1022D0008F7D81548A3108F49B838091440CE09176
:1022E000430C2091420C8053990B2053330BE05345
:1022F000FF0B8A30910530F544E6429F7001439F01
:10230000F00C11244AE04E9F90014F9F300D112494
:10231000E20EF31EE80EF91EF2E6AF1228C02B8182
:1023200020933C0C81E080933D0C0E94F50582EDEA
:102330009AE00E94F30581E090E00E9464060E940A
:10234000F505E8C3EA30F10548F079012A30310596
:1023500018F371EFE72E78EDF72EDECF8AE0829F3B
:102360007001839FF00C1124EE0EFF1ED5CF32E7D3
:10237000A312FBC4EB81E156E83108F003C50E2E31
:10238000000CFF0B8827E853FE4E8F4F0C94891FDB
:102390001A14C2163816AA1262138D15C216C21666
:1023A000C216C216C216C216C216C216C2167415BC
:1023B000C216C216E011C216C216C216C216DB142D
:1023C00041E04E0D4C83412C512C320183EA9CE0BC
:1023D0000E946503019609F0A8CF0E94C102609394
:1023E000960C7093970C8093980C9093990C5FEFD8
:1023F000451A550A650A750A8E2D0E94A40264E4E6
:1024000070E00E94341FCB010E9491058C810E94D4
:10241000A40264E470E00E94341FCB010E94910585
:10242000C301B2012FE430E040E050E00E946A1F97
:10243000672B682B692B11F40E94F5058091960C8F
:102440009091970CA091980CB091990C4091920C9E
:102450005091930C6091940C7091950C841B950B8A
:10246000A60BB70B81349244AF40B10508F4AECF50
:102470000E94F50582E399E00E94F305C7010E94DE
:1024800064068FE89AE00E94F30587EA99E00E94CB
:10249000F305C301B2010E943A068EEA99E00E9458
:1024A000F3056091960C7091970C8091980C909127
:1024B000990C0091920C1091930C2091940C3091F6
:1024C000950C601B710B820B930B4AE050E00E944D
:1024D000EA0583EB99E00E94F30586EB99E00E9400
:1024E000F3056091960C7091970C8091980C9091E7
:1024F000990C0091920C1091930C2091940C3091B6
:10250000950C601B710B820B930BA30192010E942F
:10251000481FCA01B9014AE050E00E94EA0583EB76
:1025200099E00E94F3050E94F5050E94E6020E94D0
:10253000C1026093960C7093970C8093980C9093C3
:10254000990C6093920C7093930C8093940C9093DD
:10255000950C39CF412C512C320183EA9CE00E942A
:102560006503019609F0E1CE0E94C1026093960CCA
:102570007093970C8093980C9093990C8FEF481A56
:10258000580A680A780A8E2D0E9411020E94640679
:10259000C301B2012FE430E040E050E00E946A1F26
:1025A000672B682B692B11F40E94F5058091960C1E
:1025B0009091970CA091980CB091990C4091920C2D
:1025C0005091930C6091940C7091950C841B950B19
:1025D000A60BB70B81349244AF40B10508F4BDCFD0
:1025E0000E94F50582E399E00E94F305C7010E946D
:1025F00064068FE89AE00E94F30587EA99E00E945A
:10260000F305C301B2010E943A068EEA99E00E94E6
:10261000F3056091960C7091970C8091980C9091B5
:10262000990C0091920C1091930C2091940C309184
:10263000950C601B710B820B930B4AE050E00E94DB
:10264000EA0583EB99E00E94F30586EB99E00E948E
:10265000F3056091960C7091970C8091980C909175
:10266000990C0091920C1091930C2091940C309144
:10267000950C601B710B820B930BA30192010E94BE
:10268000481FCA01B9014AE050E00E94EA0583EB05
:1026900099E00E94F3050E94F5050E94E6020E945F
:1026A000C1026093960C7093970C8093980C909352
:1026B000990C6093920C7093930C8093940C90936C
:1026C000950C48CF412C512C320183EA9CE00E94AA
:1026D0006503019609F029CE0E94C1026093960C11
:1026E0007093970C8093980C9093990C2FEF421A4B
:1026F000520A620A720A8E2D0E9479050E946406AF
:10270000C301B2012FE430E040E050E00E946A1FB4
:10271000672B682B692B11F40E94F5058091960CAC
:102720009091970CA091980CB091990C4091920CBB
:102730005091930C6091940C7091950C841B950BA7
:10274000A60BB70B81349244AF40B10508F4BDCF5E
:102750000E94F50582E399E00E94F305C7010E94FB
:1027600064068FE89AE00E94F30587EA99E00E94E8
:10277000F305C301B2010E943A068EEA99E00E9475
:10278000F3056091960C7091970C8091980C909144
:10279000990C0091920C1091930C2091940C309113
:1027A000950C601B710B820B930B4AE050E00E946A
:1027B000EA0583EB99E00E94F30586EB99E00E941D
:1027C000F3056091960C7091970C8091980C909104
:1027D000990C0091920C1091930C2091940C3091D3
:1027E000950C601B710B820B930BA30192010E944D
:1027F000481FCA01B9014AE050E00E94EA0583EB94
:1028000099E00E94F3050E94F5050E94E6020E94ED
:10281000C1026093960C7093970C8093980C9093E0
:10282000990C6093920C7093930C8093940C9093FA
:10283000950C48CF412C512C320183EA9CE00E9438
:102840006503019609F071CD0E94C1026093960C58
:102850007093970C8093980C9093990C5FEF451AA6
:10286000550A650A750A8E2D0E94A402BC01990FB3
:10287000880B990B0E94F81C20E030E040E85AE3F6
:102880000E94571D20E030E040EA50E40E94571DAE
:1028900042E00E9476068CEB99E00E94F30580915D
:1028A000960C9091970CA091980CB091990C409136
:1028B000920C5091930C6091940C7091950C841B28
:1028C000950BA60BB70B81349244AF40B10508F4C9
:1028D000B4CF0E94F50582E399E00E94F305C70199
:1028E0000E9464068FE89AE00E94F30587EA99E067
:1028F0000E94F305C301B2010E943A068EEA99E0F4
:102900000E94F3056091960C7091970C8091980C41
:102910009091990C0091920C1091930C2091940C31
:102920003091950C601B710B820B930B4AE050E0C9
:102930000E94EA0583EB99E00E94F30586EB99E09B
:102940000E94F3056091960C7091970C8091980C01
:102950009091990C0091920C1091930C2091940CF1
:102960003091950C601B710B820B930BA3019201AC
:102970000E94481FCA01B9014AE050E00E94EA05DE
:1029800083EB99E00E94F3050E94F5050E94E602A0
:102990000E94C1026093960C7093970C8093980CE0
:1029A0009093990C6093920C7093930C8093940C79
:1029B0009093950C3FCFC12CD12C760183EA9CE0FB
:1029C0000E946503019609F0B0CC0E94C1022B0160
:1029D0003C014092960C5092970C6092980C709229
:1029E000990C2FEFC21AD20AE20AF20A8CE70E946F
:1029F0000C048091920C9091930CA091940CB09146
:102A0000950C481A590A6A0A7B0A31E4431632E4E3
:102A100053063FE06306710488F20E94F5058FEBD0
:102A200099E00E94F305C701B6010E943A068EEABA
:102A300099E00E94F3056091960C7091970C80913B
:102A4000980C9091990C0091920C1091930C2091FC
:102A5000940C3091950C601B710B820B930B4AE028
:102A600050E00E94EA0583EB99E00E94F30589ECAF
:102A700099E00E94F3056091960C7091970C8091FB
:102A8000980C9091990C0091920C1091930C2091BC
:102A9000940C3091950C601B710B820B930BA7016A
:102AA00096010E94481FCA01B9014AE050E00E9405
:102AB000EA0583EB99E00E94F3050E94F5050E9468
:102AC000E6020E94C1026093960C7093970C80936B
:102AD000980C9093990C6093920C7093930C809344
:102AE000940C9093950C67CF88ED99E00E942E0688
:102AF000F701E05AFD4F84910E9461058CEE99E048
:102B00000E94F305F701E65EFD4F84910E94610586
:102B10000E941E060E9451051ECA8DEF99E00E9478
:102B2000F3058FE89AE00E94F305C7010E9464064E
:102B300080E09AE00E94F3050E94F505EC8260E0D7
:102B40008E2D0E9468028EE19AE00E94F3050E9499
:102B5000F505412C512C320129813A812436310569
:102B6000C4F48C810E941102092E000CAA0BBB0B2D
:102B7000480E591E6A1E7B1EC301B2010E943A060E
:102B80000E94F50549815A814F5F5F4F5A834983FF
:102B9000E3CF5FE145165104610471040CF4B8CF32
:102BA00080E09AE00E94F3050E94F505C70199278D
:102BB000FC01E05AFD4F4F019C01265E3D4F69012B
:102BC00083EA9CE00E946503019609F04EC0612CE7
:102BD00060E1762E212C312C2101F4016491F60163
:102BE0008491E82FF0E0EE0FFF1FE050FE4F85913B
:102BF000949100E910ED23E030E0462F0E949E0CF6
:102C0000611571058105910509F48FC59B01AC0122
:102C10002F5F3F4F4F4F5F4F5F7060E271EA87E079
:102C200090E00E94481F220E331E441E551EF1E004
:102C30006F1A710891F6C7010E9464068FE499E04B
:102C40000E94F305C201B10120E030E140E050E014
:102C50000E946A1FCA01B9010E943A0683E69AE0FF
:102C60000E94F3050E94F505ABCF0E94F50550CFF9
:102C700061E08DE00E943A020E941B032B013C019F
:102C80008E2D0E94A4028838924084F40E941B0377
:102C90006419750986099709613D77408105910599
:102CA00078F386E69AE00E942E0632CF0E941B033C
:102CB0009B01AC01241935094609570929013A013C
:102CC000CA01B9010E94F61C20E030E44CE156E450
:102CD0000E94821E20E030E04AE754E40E94571D23
:102CE0006B017C018EE69AE00E94F30542E0C70189
:102CF000B6010E9476068CE79AE00E942E064AE012
:102D000050E0C301B2010E94EA0589E89AE00E94FE
:102D1000F30520E030E040E85FE3C701B6010E9420
:102D20002A1F18169CF4C701B6010E94F41E0E94C7
:102D30003A068CE79AE00E942E0660E08DE00E9441
:102D40003A0260E08DE00E946802E2CE20E030E0CE
:102D50004AE754E4C701B6010E94571D0E94F41EC1
:102D60000E943A0681E99AE0E6CF37E7A312A2C0B3
:102D70004B81493609F48DC054F4423609F440C001
:102D80004836C1F08DE99AE00E94F305C1CE5B811F
:102D90005C3621F15537B1F7C7010297C49708F0A7
:102DA000B7CEF701EE5FFD4F80818F7D8068808315
:102DB00060E00CC0C7010297C49708F0A9CEF701E4
:102DC000EE5FFD4F8081806A808361E08E2D0E94DE
:102DD000680261E08E2D0E943A029ACEC7010297E6
:102DE000C49708F095CEF701EE5FFD4F80818F7D8F
:102DF0008068808361E08E2D0E94680260E0EACFE7
:102E0000C7010297C49708F083CE8BEB9AE00E942B
:102E1000F305C7010E94640687010E5F1D4FF8018C
:102E2000808183FF1DC0877580838DEB9AE00E94AF
:102E30002E0660E08E2D0E943A0260E08E2D0E94E8
:102E4000680260E08E2D0E943A02E2E0F2E088E340
:102E500092E0219123FF17C081E08093910C58CE1E
:102E600088EC9AE00E94F3050E94F50581E08093CA
:102E7000910CF8018081886A808361E08E2D0E9428
:102E8000680268E0DFCF8E179F0719F71092910C48
:102E90003FCEC7010297C49708F03ACEF701EE5F24
:102EA000FD4F80818F77808360E08E2D0E943A02F3
:102EB00060E0A1CFF4E6AF122BCE2B81263609F4C9
:102EC000B9C0233709F05ECFBE2C61E08E2D0E9481
:102ED000680297012E5F3D4F690130E2932E10E0AA
:102EE00000E083EA9CE00E946503F601F081FC8328
:102EF000019609F079C10E94C1022B013C01409268
:102F0000960C5092970C6092980C7092990C0F5FEF
:102F10001F4F8C818925F60180836C8160956072DA
:102F20008B2D0E943A028091920C9091930CA0916B
:102F3000940CB091950C481A590A6A0A7B0AF1E47C
:102F40004F16F2E45F06FFE06F06710450F20E9434
:102F5000F50582E399E00E94F305C7010E9464062B
:102F60008FE89AE00E94F30587EA99E00E94F30552
:102F7000C8010E9464068EEA99E00E94F305609100
:102F8000960C7091970C8091980C9091990C4090B0
:102F9000920C5090930C6090940C7090950C641966
:102FA0007509860997094AE050E00E94EA0583EB1B
:102FB00099E00E94F30586EB99E00E94F305609189
:102FC000960C7091970C8091980C9091990C409070
:102FD000920C5090930C6090940C7090950C641926
:102FE0007509860997099801110F440B550B0E942A
:102FF000481FCA01B9014AE050E00E94EA0583EB8C
:1030000099E00E94F3050E94F5050E94E6020E94E5
:10301000C1026093960C7093970C8093980C9093D8
:10302000990C6093920C7093930C8093940C9093F2
:10303000950C55CFBE2C61E08E2D0E946802A70131
:103040004E5F5D4F6A01C7019927FC01E05AFD4FB1
:103050004F019C01265E3D4F190110E000E083EA1C
:103060009CE00E946503F6017080019609F0B3C0F0
:103070000E94C1026093960C7093970C8093980CF9
:103080009093990C0F5F1F4F80E28725F601808394
:10309000F4018491F1019491E92FF0E0EE0FFF1F0C
:1030A000EA51FE4FA591B4919FB72C9175FE91C046
:1030B000809582238C939FBF8091960C9091970C62
:1030C000A091980CB091990C4091920C5091930C56
:1030D0006091940C7091950C841B950BA60BB70B0B
:1030E00081349244AF40B10508F4B9CF0E94F50590
:1030F00082E399E00E94F305C7010E9464068FE80D
:103100009AE00E94F30587EA99E00E94F305C8015E
:103110000E9464068EEA99E00E94F3056091960C85
:103120007091970C8091980C9091990C4090920C12
:103130005090930C6090940C7090950C64197509E4
:10314000860997094AE050E00E94EA0583EB99E07E
:103150000E94F30586EB99E00E94F3056091960CBE
:103160007091970C8091980C9091990C4090920CD2
:103170005090930C6090940C7090950C64197509A4
:10318000860997099801110F440B550B0E94481F9F
:10319000CA01B9014AE050E00E94EA0583EB99E0D8
:1031A0000E94F3050E94F5050E94E6020E94C102FA
:1031B0006093960C7093970C8093980C9093990C55
:1031C0006093920C7093930C8093940C9093950C55
:1031D00044CF822B6FCF60E08B2D0E946802E89471
:1031E00075F8F6017082A1C860E08B2D0E9468021C
:1031F0002C812F7DF601208398C88337910529F40F
:1032000081E0809301020C94AB0F8636910511F496
:1032100082E0F7CF8736910511F483E0F2CF813653
:10322000910569F480910002813021F4109200022E
:103230000C94AB0F81E0809300020C94AB0F8436AA
:10324000910569F480913E0C813021F410923E0C7E
:103250000C94AB0F81E080933E0C0C94AB0F89363D
:10326000910509F048C10E94F50589ED9AE00E9498
:103270002E0602E012E0F12CE12CC7010E94640648
:103280008FE499E00E94F305F80181918F010E947B
:10329000610584EF9AE00E94F305FFEFEF1AFF0A41
:1032A00026E3E216F10449F70E94F50586EF9AE05D
:1032B0000E94F3056AE070E08091910C0E94EC0599
:1032C0000E94F5050E941E0610E000E031E03C83FC
:1032D000FF24F39482E0E82EDD24DA9495EEC92EE3
:1032E00025ECB22EF092140C4C814093360C1092C7
:1032F000150C1092370C0E94C1022B013C018091E9
:103300000E0C811162C0E0920E0CF0920D0CD09266
:103310000C0C10920B0C10920A0C1092E90B90916D
:10332000E90B8C81880F892B8093E90B8091E80B46
:10333000813009F0A0C01092E80B0E94C1022B015D
:103340003C018091E90B8093BB008091100C90911F
:10335000110CA091120CB091130C892B8A2B8B2B82
:10336000A1F00E94C1022091100C3091110C4091EB
:10337000120C5091130C64197509860997092617C8
:1033800037074807590708F441C08091BC0083FD06
:10339000D8CFB092BC000E94C1022B013C018091A9
:1033A0000E0C823009F46AC080910C0C8F3F09F436
:1033B00087C080910C0C803209F484C080910C0C81
:1033C000803309F081C083E026C08091100C909179
:1033D000110CA091120CB091130C892B8A2B8B2B02
:1033E00009F48DCF0E94C1022091100C3091110C74
:1033F0004091120C5091130C6419750986099709B4
:10340000261737074807590708F079CF80910F0C26
:103410000E94A70485E01092150C1092370C1092B0
:10342000140C811153C088E09BE00E94F3055C817D
:10343000503120F487E29BE00E94F30560E170E0E8
:103440008C810E94EC0589E29BE00E942E060F5FB2
:103450001F4F9C819F5F9C839F3709F043CF89E476
:103460009BE0012B11F08FE59BE00E942E060E944D
:103470001E060C94AB0FC092BC008DCF8091100C37
:103480009091110CA091120CB091130C892B8A2BE6
:103490008B2B09F484CF0E94C1022091100C309133
:1034A000110C4091120C5091130C64197509860986
:1034B0009709261737074807590708F070CFA6CF96
:1034C00080E0A9CF82E0A7CF84E0A5CF843009F6C1
:1034D0008DE29BE00E94F3058C81803120F487E22D
:1034E0009BE00E94F30560E170E08C810E94EC0596
:1034F0000E94F505AECF8A37910579F480913D0C95
:10350000813039F410923D0C8AE780933C0C0C9486
:10351000AB0F81E080933D0CF7CF8837910561F4C4
:1035200080913D0C813021F410923D0C88E7EDCF65
:1035300081E080933D0CFACF8937910561F4809149
:103540003D0C813021F410923D0C89E7DECF81E003
:1035500080933D0CFACF8D36910529F40E94F50534
:103560000E94F90984CF8737910521F560E088E151
:103570000E943A0261E080E20E943A0240E066E185
:103580008EE10E944E0761E088E10E943A0260E00D
:1035900088E10E943A0261E080E20E943A0241E042
:1035A00066E18EE10E944E0761E088E10E943A02E6
:1035B0000C94AB0F85369105D9F460E088E10E9448
:1035C0003A0261E084E20E943A0240E066E182E26F
:1035D0000E944E0741E066E182E20E944E0740E011
:1035E00066E182E20E944E0740E066E182E2DACFC5
:1035F0008037910509F03CC0F12CE12C0E94F505C3
:1036000082E399E00E94F305C7010E94640687E304
:1036100099E00E94F30589E399E00E94F305F70120
:10362000E05AFD4F84910E94610581E599E00E9476
:10363000F3058701065E1D4FF801849190E0805CE0
:103640009F4F0E94640687E599E00E94F3058FE48E
:1036500099E00E94F305F80184910E946105FFEF53
:10366000EF1AFF0A26E3E216F10409F0C7CFFFCEF6
:103670008437910521F40E940C060C94AB0F8F3314
:10368000910531F481E090E00E9479080C94AB0F31
:103690000D9731F40E94F50585EA99E00E94F30543
:1036A00080918F0C9091900C0E9464060C94AB0F4B
:1036B00087E69BE00E94F3056091380C7091390C0D
:1036C00080913A0C90913B0C4AE050E00E94EA0550
:1036D000C090960CD090970CE090980CF090990CBC
:1036E0008091920C9091930CA091940CB091950CB8
:1036F000C81AD90AEA0AFB0A84E50E940C044AE0C7
:1037000050E0C701B6010E94EA058CE792E00E94F2
:10371000F3050E94F5050E9431040C94480E0097B1
:1037200011F40C94AB0F0C942D110E9486200F9372
:103730001F93CF93DF938230910510F482E090E0E5
:10374000E0914E0DF0914F0D30E020E0B0E0A0E0B0
:10375000309799F42115310509F44AC0281B390B1B
:1037600024303105D8F58A819B816115710589F175
:10377000FB0193838283FE0111C04081518102814C
:10378000138148175907E0F04817590799F4109723
:1037900061F012960C93129713961C933296CF01F8
:1037A000DF91CF911F910F91089500934E0D1093CB
:1037B0004F0DF4CF2115310551F04217530738F062
:1037C000A901DB019A01BD01DF01F801C1CFEF01C1
:1037D000F9CF90934F0D80934E0DCDCFFE01E20FA8
:1037E000F31F819391932250310939832883D7CFD6
:1037F00020914C0D30914D0D232B41F420913A0234
:1038000030913B0230934D0D20934C0D20913802A6
:10381000309139022115310541F42DB73EB7409161
:103820003C0250913D02241B350BE0914C0DF09170
:103830004D0DE217F307A0F42E1B3F0B2817390795
:1038400078F0AC014E5F5F4F2417350748F04E0FFC
:103850005F1F50934D0D40934C0D819391939FCFDB
:10386000F0E0E0E09CCFCF93DF930097E9F0FC011C
:10387000329713821282A0914E0DB0914F0DED013F
:1038800030E020E01097A1F420813181820F931F56
:1038900020914C0D30914D0D2817390709F061C06A
:1038A000F0934D0DE0934C0DDF91CF910895EA0117
:1038B000CE17DF07E8F54A815B819E01411551056E
:1038C000B1F7E901FB83EA8349915991C40FD51FF0
:1038D000EC17FD0761F4808191810296840F951F9A
:1038E000E90199838883828193819B838A83F0E0B5
:1038F000E0E012968D919C9113970097B9F52D9168
:103900003C911197CD010296820F931F20914C0D8F
:1039100030914D0D2817390739F6309751F510922F
:103920004F0D10924E0DB0934D0DA0934C0DBCCF8A
:10393000D383C28340815181840F951FC817D90753
:1039400061F44E5F5F4F88819981480F591F518301
:1039500040838A819B81938382832115310509F0FD
:10396000B0CFF0934F0DE0934E0D9ECFFD01DC01E3
:10397000C0CF13821282D7CFBB274A3031F49923AC
:1039800022F4BDE2909581959F4F0C94C81CBB27F3
:10399000FB015527AA27880F991FAA1FA41710F00B
:1039A000A41B83955051B9F7A05DAA3308F0A95D17
:1039B000A193009779F7B111B1931192CB010C94B7
:1039C000E11CDC01FC01672F71917723E1F732974D
:1039D00004C07C916D9370836291AE17BF07C8F3EA
:1039E00008950E94331D08F481E00895E89409C009
:1039F00097FB3EF490958095709561957F4F8F4F22
:103A00009F4F9923A9F0F92F96E9BB279395F69537
:103A1000879577956795B795F111F8CFFAF4BB0FB5
:103A200011F460FF1BC06F5F7F4F8F4F9F4F16C019
:103A3000882311F096E911C0772321F09EE8872FA3
:103A4000762F05C0662371F096E8862F70E060E05F
:103A50002AF09A95660F771F881FDAF7880F9695D8
:103A6000879597F90895990F0008550FAA0BE0E87C
:103A7000FEEF16161706E807F907C0F01216130630
:103A8000E407F50798F0621B730B840B950B39F470
:103A90000A2661F0232B242B252B21F408950A26D6
:103AA00009F4A140A6958FEF811D811D08950E9404
:103AB0006A1D0C94DB1D0E94CD1D38F00E94D41DA0
:103AC00020F0952311F00C94C41D0C94CA1D1124F0
:103AD0000C940F1E0E94EC1D70F3959FC1F3950F7F
:103AE00050E0551F629FF001729FBB27F00DB11D82
:103AF000639FAA27F00DB11DAA1F649F6627B00D12
:103B0000A11D661F829F2227B00DA11D621F739FFA
:103B1000B00DA11D621F839FA00D611D221F749F08
:103B20003327A00D611D231F849F600D211D822F4F
:103B3000762F6A2F11249F5750409AF0F1F0882376
:103B40004AF0EE0FFF1FBB1F661F771F881F9150A3
:103B50005040A9F79E3F510580F00C94C41D0C9471
:103B60000F1E5F3FE4F3983ED4F3869577956795F3
:103B7000B795F795E7959F5FC1F7FE2B880F911DCD
:103B80009695879597F9089597F99F6780E870E073
:103B900060E008959FEF80EC089500240A941616C3
:103BA000170618060906089500240A94121613062B
:103BB000140605060895092E0394000C11F48823B9
:103BC00052F0BB0F40F4BF2B11F460FF04C06F5FD5
:103BD0007F4F8F4F9F4F089557FD9058440F551FAB
:103BE00059F05F3F71F04795880F97FB991F61F07F
:103BF0009F3F79F087950895121613061406551FF6
:103C0000F2CF4695F1DF08C0161617061806991F61
:103C1000F1CF86957105610508940895E894BB2756
:103C200066277727CB0197F908955058BB27AA2715
:103C30000E942D1E0C94DB1D0E94CD1D38F00E94A9
:103C4000D41D20F039F49F3F19F426F40C94CA1DBA
:103C50000EF4E095E7FB0C94C41DE92F0E94EC1DC7
:103C600058F3BA17620773078407950720F079F4B1
:103C7000A6F50C940E1E0EF4E0950B2EBA2FA02D77
:103C80000B01B90190010C01CA01A0011124FF2709
:103C9000591B99F0593F50F4503E68F11A16F04004
:103CA000A22F232F342F4427585FF3CF4695379503
:103CB0002795A795F0405395C9F77EF41F16BA0BC8
:103CC000620B730B840BBAF09150A1F0FF0FBB1F76
:103CD000661F771F881FC2F70EC0BA0F621F731FBF
:103CE000841F48F4879577956795B795F7959E3F1C
:103CF00008F0B0CF9395880F08F09927EE0F9795AD
:103D0000879508950E94961E0C94DB1D0E94D41D79
:103D100058F00E94CD1D40F029F45F3F29F00C942B
:103D2000C41D51110C940F1E0C94CA1D0E94EC1D51
:103D300068F39923B1F3552391F3951B550BBB27DA
:103D4000AA2762177307840738F09F5F5F4F220F1F
:103D5000331F441FAA1FA9F335D00E2E3AF0E0E816
:103D600032D091505040E695001CCAF72BD0FE2F60
:103D700029D0660F771F881FBB1F261737074807F4
:103D8000AB07B0E809F0BB0B802DBF01FF279358AC
:103D90005F4F3AF09E3F510578F00C94C41D0C948F
:103DA0000F1E5F3FE4F3983ED4F3869577956795B1
:103DB000B795F7959F5FC9F7880F911D96958795E1
:103DC00097F90895E1E0660F771F881FBB1F621700
:103DD00073078407BA0720F0621B730B840BBA0BBE
:103DE000EE1F88F7E09508950E94FB1E6894B111BC
:103DF0000C940F1E08950E94F41D88F09F5798F0B0
:103E0000B92F9927B751B0F0E1F0660F771F881FDF
:103E1000991F1AF0BA95C9F714C0B13091F00E94F9
:103E20000E1EB1E008950C940E1E672F782F882780
:103E3000B85F39F0B93FCCF3869577956795B39520
:103E4000D9F73EF490958095709561957F4F8F4F8F
:103E50009F4F08950E94331D08F48FEF08950E942C
:103E6000331D880B990B089597FB072E16F40094C9
:103E700007D077FD09D00E94911F07FC05D03EF4C2
:103E8000909581959F4F0895709561957F4F089506
:103E9000A1E21A2EAA1BBB1BFD010DC0AA1FBB1F4E
:103EA000EE1FFF1FA217B307E407F50720F0A21BC0
:103EB000B30BE40BF50B661F771F881F991F1A942D
:103EC00069F760957095809590959B01AC01BD0157
:103ED000CF010895052E97FB1EF400940E94811FC8
:103EE00057FD07D00E94481F07FC03D04EF40C94E6
:103EF000811F50954095309521953F4F4F4F5F4F13
:103F0000089590958095709561957F4F8F4F9F4F45
:103F10000895EE0FFF1F881F8BBF0790F691E02DCD
:103F20001994AA1BBB1B51E107C0AA1FBB1FA617F0
:103F3000B70710F0A61BB70B881F991F5A95A9F752
:103F400080959095BC01CD0108954F925F926F923C
:103F50007F928F929F92AF92BF92CF92DF92EF9219
:103F6000FF920F931F93CF93DF938C01009799F4E7
:103F7000CB01DF91CF911F910F91FF90EF90DF90D8
:103F8000CF90BF90AF909F908F907F906F905F90F9
:103F90004F900C94971BFC01E60FF71F9C012250D9
:103FA0003109E217F30708F4AEC0D901CD91DC91D5
:103FB0001197C617D70720F1C530D10578F0CE018B
:103FC00004978617970750F0C61BD70B2297C1930B
:103FD000D1936D937C93CF010E94331CC801DF9174
:103FE000CF911F910F91FF90EF90DF90CF90BF90F6
:103FF000AF909F908F907F906F905F904F900895BB
:104000005B01AC1ABD0A4C018C0E9D1EA0914E0D99
:10401000B0914F0D512C412CF12CE12C109731F522
:1040200080914C0D90914D0D8815990509F05CC05B
:104030004616570608F058C0809138029091390210
:10404000009741F48DB79EB740913C0250913D02DC
:10405000841B950BE817F90708F055C0F0934D0D38
:10406000E0934C0DF90171836083B8CF8D919C91E1
:10407000119712966C90129713967C901397A8152F
:10408000B90559F56C0142E0C40ED11CCA14DB0419
:1040900020F1AC014A195B09DA011296159780F0FC
:1040A0006282738251834083D9016D937C93E114C2
:1040B000F10471F0D7011396FC93EE9312978ECF13
:1040C00022968C0F9D1FF90191838083F301EFCF1E
:1040D000F0934F0DE0934E0D81CF4816590608F42A
:1040E0002C017D01D3019ACFCB010E94971B7C014B
:1040F000009749F0AE01B8010E948B20C8010E94D0
:10410000331C87016BCF10E000E068CF81E090E0C6
:10411000F8940C949B20FB01DC0102C001900D92ED
:1041200041505040D8F70895FB01DC0101900D92F9
:0A4130000020E1F70895F894FFCF96
:10413A000101808000000000000000000000000073
:10414A000000000000008080010001000100010061
:10415A00010001000100010001000100000000004F
:10416A0000000000000000000000500D8000000068
:10417A000000BF032903560311048703650379036B
:10418A00000000001F05F2044E05C804EB04D80421
:10419A00C904303132333435363738394142434431
:1041AA004546000D0A0074696D653D006D73005047
:1041BA00617573652070726573732061206B657910
:1041CA002D3E5F006E616E00696E66006F76660056
:1041DA0041726475696E6F204C6F6769632053740E
:1041EA0061746520416E616C797A657200507265FE
:1041FA007373203F2020666F7220417661696C617B
:10420A00626C6520436F6D6D616E647300507265F8
:10421A007373202F2020746F206372656174652088
:10422A00436F6D6D616E646C696E65002D2D2D2D69
:10423A002D2D2D2D2D2D2D2D2D2D2D2D2D52756EF6
:10424A006E696E6720436F6D6D616E646C696E6531
:10425A002D2D2D2D2D2D2D2D2D2D2D2D2D2D2D2D84
:10426A002D2D2D2D00507265737320672020466115
:10427A0073746572205363616E20413D2F2E33762D
:10428A0020207265736F6C7574696F6E0050726569
:10429A0073732066202046617374205363616E2015
:1042AA002020413D2E30327620207265736F6C7566
:1042BA0074696F6E00507265737320732020536C9B
:1042CA006F77205363616E202020413D2E303035B8
:1042DA0076207265736F6C7574696F6E00507265C3
:1042EA00737320742020446973706C617973206D34
:1042FA00696C697365636F6E64732073696E636555
:10430A002070726F6772616D2073746172740050ED
:10431A007265737320612020416E616C6F67205350
:10432A0063616E005072657373206420204469676C
:10433A006974616C205363616E00507265737320F7
:10434A006D2020417661696C61626C65204D656DF6
:10435A006F72790050726573732069202049326345
:10436A00205363616E6E65722026206172647569DE
:10437A006E6F323536304469676974616C426974AC
:10438A004D617020417272617900507265737320B9
:10439A007A2020526567697374657220506F72744F
:1043AA002046264B205363616E005072657373205A
:1043BA00792020526567697374657220506F727430
:1043CA0020452648205363616E005072657373203E
:1043DA00782020414C4C20506F727420506F7274B8
:1043EA0020412D4C205363616E0050726573732017
:1043FA006520203820426974205368696674205207
:10440A00656769737465722050696E733A636C6F7D
:10441A00636B002C656E61626C653A002C64617492
:10442A00613A005072657373207720203820426900
:10443A00742053686966742052656769737465727B
:10444A002050696E733A636C6F636B0050726573C8
:10445A0073207020205072696E747320616C6C2016
:10446A006469676974616C50696E546F4269744D0E
:10447A0061736B20746F206469676974616C506939
:10448A006E546F506F7274200020446967697461BA
:10449A006C2050696E73002D2D2D2D2D2D2D2D2D57
:1044AA002D2D2D2D2D2D2D2D2F5720575249544569
:1044BA002D2D2D2D2D2D2D2D2D2D2D2D2D2D2D2D22
:1044CA002D2D2D2D2D2D2D2D2D2D2D2D2D2D0077F5
:1044DA00622320202020204D616B65732070696E55
:1044EA0023204F757470757420616E6420424C49A4
:1044FA004E4B5320697420484947482F4C4F570068
:10450A0064662F6473232020424C494E4B53207E0D
:10451A00386B687A2052756E732031207365632078
:10452A007468656E2070617573657320666F72209A
:10453A00313030206D696C6C697365637320666F06
:10454A00722053657269616C2E72656164007768C6
:10455A002320202020204D616B65732070696E2313
:10456A00204F75747075742061732048494748203C
:10457A000077752320202020204D616B6573207001
:10458A00696E232050756C6C55702000776C23205F
:10459A00202020204D616B65732070696E23204FA7
:1045AA007574707574206173204C4F5700776923B6
:1045BA0020202020204D616B65732070696E2320B6
:1045CA00617320496E707574002D2D2D2D2D2D2DA2
:1045DA002D2D2D2D2D2D2D2D2D2D2F522052454196
:1045EA00442D2D2D2D2D2D2D2D2D2D2D2D2D2D2DDA
:1045FA002D2D2D2D2D2D2D2D2D2D2D2D2D2D2D000E
:10460A00727820202020202031736563205458209E
:10461A003131356B626175642831326B636861725E
:10462A007334386B6269747374617465734D61783D
:10463A0029207573696E67204845582050726F7437
:10464A0061636F6C00726423202020202052656110
:10465A0064206469676974616C2070696E232076CE
:10466A00616C7565206469676974616C526561641F
:10467A00280072652320202020205265616420646E
:10468A0069676974616C2070696E232076616C7544
:10469A0065206469676974616C5265616446617317
:1046AA007428007261232020202020526561642032
:1046BA00616E616C6F67202070696E232076616C71
:1046CA00756520413D2E337620207265736F6C75B7
:1046DA0074696F6E002D2D2D2D2D2D2D2D2D2D2D27
:1046EA002D2D2D2D2D2D2F2045787065726D656E1F
:1046FA0074616C206F722042726F6B652D2D2D2DA7
:10470A002D2D2D2D2D2D2D2D2D2D2D2D2D0072667E
:10471A002320202020204D65617375726573204621
:10472A007265712070696E2320526561647300623C
:10473A002420202020202024203D206C65747465CC
:10474A0072206F6620726567697374657220706F74
:10475A00727420746F207265616420612C622C630C
:10476A002C642C652C662C672C682C6A2C6B2C6CA0
:10477A000072632320202020205265616420436157
:10478A007061636974616E63652076616C7565201A
:10479A00616E616C6F672070696E2320302D313530
:1047AA002C2074616B6573207E20327365637320DD
:1047BA00000A2D2D2D2046726565204D656D6F729C
:1047CA007920696E2062797465732D2D2D004672E9
:1047DA006565204D656D6F72793D00537461636B39
:1047EA002D486561703D002D2D2D20736563746918
:1047FA006F6E2073697A652073756D6D6172696574
:10480A007320696E2062797465732D2D2D00726193
:10481A006D20202073697A653D002E6461746120E1
:10482A0073697A653D002E627373202073697A6515
:10483A003D0068656170202073697A653D00737474
:10484A0061636B2073697A653D00667265652073E2
:10485A00697A65313D00667265652073697A6532E9
:10486A003D0070696E3D007C006469676974616C23
:10487A0050696E546F4269744D61736B2878293D93
:10488A00007C504F525400206469676974616C500F
:10489A00696E546F506F72742878293D0024004461
:1048AA004452650044445268007C504F525465009B
:1048BA00504F52543D6800486F772074686520480D
:1048CA00656C6C20646964204920656E642075708B
:1048DA0020686572653F00636F756E743D002069DC
:1048EA006E2000757300206176673D002C2000431E
:1048FA00686172732054583D0020617667207065A4
:10490A007220636861723D006469676974616C5002
:10491A00696E546F4269744D61736B0064696769AB
:10492A0074616C50696E546F506F72740066200027
:10493A0020446973706C61797320667265712074A2
:10494A00696C6C206B6579707265737320002050F6
:10495A00696E206368616E676573207265616420A1
:10496A00617320636F756E74206966206E6F2063B1
:10497A006F756E74207468656E2066726571206D3D
:10498A006561737572656D656E742061626F7274AC
:10499A00656400687A0054696D656F7574004361D7
:1049AA007061636974616E63653A2000206D6963A2
:1049BA00726F46617261647300206D53202020205B
:1049CA0000206E616E6F46617261647300576861A0
:1049DA0074207468652048656C6C20646F65732068
:1049EA0074686973206D65616E3F0062003D424CD8
:1049FA00494E4B204F4646003D424C494E4B204FB4
:104A0A004E004552524F523D0061726475696E6F95
:104A1A00323536304469676974616C4269744D6134
:104A2A00703A20002C00676C6F62616C626C696E70
:104A3A006B73746174653D0049324320646576691D
:104A4A00636520666F756E642061742061646472A8
:104A5A0065737320307800300020202100556E6B7A
:104A6A006E6F776E206572726F7220617420616456
:104A7A006472657373203078004E6F204932432088
:104A8A006465766963657320666F756E640A00648F
:0A4A9A006F6E6500205B005D2000D8
:00000001FF
